{"abi":[{"type":"constructor","inputs":[{"name":"_stakeToken","type":"address","internalType":"contract IERC20"},{"name":"_rewardToken","type":"address","internalType":"contract IERC20"},{"name":"_ownerAddress","type":"address","internalType":"address"},{"name":"_managerAddress","type":"address","internalType":"address"},{"name":"_defaultDuration","type":"uint256","internalType":"uint256"},{"name":"_defaultTimeLock","type":"uint256","internalType":"uint256"}],"stateMutability":"nonpayable"},{"type":"function","name":"allowance","inputs":[{"name":"_owner","type":"address","internalType":"address"},{"name":"_spender","type":"address","internalType":"address"}],"outputs":[{"name":"","type":"uint256","internalType":"uint256"}],"stateMutability":"view"},{"type":"function","name":"approve","inputs":[{"name":"_spender","type":"address","internalType":"address"},{"name":"_amount","type":"uint256","internalType":"uint256"}],"outputs":[{"name":"","type":"bool","internalType":"bool"}],"stateMutability":"nonpayable"},{"type":"function","name":"balanceOf","inputs":[{"name":"_walletAddress","type":"address","internalType":"address"}],"outputs":[{"name":"","type":"uint256","internalType":"uint256"}],"stateMutability":"view"},{"type":"function","name":"changeManager","inputs":[{"name":"_newManager","type":"address","internalType":"address"}],"outputs":[],"stateMutability":"nonpayable"},{"type":"function","name":"claimReward","inputs":[],"outputs":[{"name":"rewardAmount","type":"uint256","internalType":"uint256"}],"stateMutability":"nonpayable"},{"type":"function","name":"decimals","inputs":[],"outputs":[{"name":"","type":"uint8","internalType":"uint8"}],"stateMutability":"view"},{"type":"function","name":"decreaseAllowance","inputs":[{"name":"_spender","type":"address","internalType":"address"},{"name":"_subtractedValue","type":"uint256","internalType":"uint256"}],"outputs":[{"name":"","type":"bool","internalType":"bool"}],"stateMutability":"nonpayable"},{"type":"function","name":"earned","inputs":[{"name":"_walletAddress","type":"address","internalType":"address"}],"outputs":[{"name":"","type":"uint256","internalType":"uint256"}],"stateMutability":"view"},{"type":"function","name":"exitFarm","inputs":[],"outputs":[],"stateMutability":"nonpayable"},{"type":"function","name":"farmDeposit","inputs":[{"name":"_stakeAmount","type":"uint256","internalType":"uint256"}],"outputs":[],"stateMutability":"nonpayable"},{"type":"function","name":"farmWithdraw","inputs":[{"name":"_withdrawAmount","type":"uint256","internalType":"uint256"}],"outputs":[],"stateMutability":"nonpayable"},{"type":"function","name":"increaseAllowance","inputs":[{"name":"_spender","type":"address","internalType":"address"},{"name":"_addedValue","type":"uint256","internalType":"uint256"}],"outputs":[{"name":"","type":"bool","internalType":"bool"}],"stateMutability":"nonpayable"},{"type":"function","name":"lastTimeRewardApplicable","inputs":[],"outputs":[{"name":"res","type":"uint256","internalType":"uint256"}],"stateMutability":"view"},{"type":"function","name":"lastUpdateTime","inputs":[],"outputs":[{"name":"","type":"uint256","internalType":"uint256"}],"stateMutability":"view"},{"type":"function","name":"managerAddress","inputs":[],"outputs":[{"name":"","type":"address","internalType":"address"}],"stateMutability":"view"},{"type":"function","name":"name","inputs":[],"outputs":[{"name":"","type":"string","internalType":"string"}],"stateMutability":"view"},{"type":"function","name":"ownerAddress","inputs":[],"outputs":[{"name":"","type":"address","internalType":"address"}],"stateMutability":"view"},{"type":"function","name":"perTokenPaid","inputs":[{"name":"","type":"address","internalType":"address"}],"outputs":[{"name":"","type":"uint256","internalType":"uint256"}],"stateMutability":"view"},{"type":"function","name":"perTokenStored","inputs":[],"outputs":[{"name":"","type":"uint256","internalType":"uint256"}],"stateMutability":"view"},{"type":"function","name":"periodFinished","inputs":[],"outputs":[{"name":"","type":"uint256","internalType":"uint256"}],"stateMutability":"view"},{"type":"function","name":"recoverToken","inputs":[{"name":"tokenAddress","type":"address","internalType":"contract IERC20"},{"name":"tokenAmount","type":"uint256","internalType":"uint256"}],"outputs":[],"stateMutability":"nonpayable"},{"type":"function","name":"rewardDuration","inputs":[],"outputs":[{"name":"","type":"uint256","internalType":"uint256"}],"stateMutability":"view"},{"type":"function","name":"rewardPerToken","inputs":[],"outputs":[{"name":"","type":"uint256","internalType":"uint256"}],"stateMutability":"view"},{"type":"function","name":"rewardRate","inputs":[],"outputs":[{"name":"","type":"uint256","internalType":"uint256"}],"stateMutability":"view"},{"type":"function","name":"rewardToken","inputs":[],"outputs":[{"name":"","type":"address","internalType":"contract IERC20"}],"stateMutability":"view"},{"type":"function","name":"setRewardDuration","inputs":[{"name":"_rewardDuration","type":"uint256","internalType":"uint256"}],"outputs":[],"stateMutability":"nonpayable"},{"type":"function","name":"setRewardRate","inputs":[{"name":"_newRewardRate","type":"uint256","internalType":"uint256"}],"outputs":[],"stateMutability":"nonpayable"},{"type":"function","name":"stakeToken","inputs":[],"outputs":[{"name":"","type":"address","internalType":"contract IERC20"}],"stateMutability":"view"},{"type":"function","name":"symbol","inputs":[],"outputs":[{"name":"","type":"string","internalType":"string"}],"stateMutability":"view"},{"type":"function","name":"timeLock","inputs":[],"outputs":[{"name":"","type":"uint256","internalType":"uint256"}],"stateMutability":"view"},{"type":"function","name":"tokensLocked","inputs":[{"name":"_walletAddress","type":"address","internalType":"address"}],"outputs":[{"name":"","type":"bool","internalType":"bool"}],"stateMutability":"view"},{"type":"function","name":"totalSupply","inputs":[],"outputs":[{"name":"","type":"uint256","internalType":"uint256"}],"stateMutability":"view"},{"type":"function","name":"transfer","inputs":[{"name":"_recipient","type":"address","internalType":"address"},{"name":"_amount","type":"uint256","internalType":"uint256"}],"outputs":[{"name":"","type":"bool","internalType":"bool"}],"stateMutability":"nonpayable"},{"type":"function","name":"transferFrom","inputs":[{"name":"_sender","type":"address","internalType":"address"},{"name":"_recipient","type":"address","internalType":"address"},{"name":"_amount","type":"uint256","internalType":"uint256"}],"outputs":[{"name":"","type":"bool","internalType":"bool"}],"stateMutability":"nonpayable"},{"type":"function","name":"unlockTime","inputs":[{"name":"","type":"address","internalType":"address"}],"outputs":[{"name":"","type":"uint256","internalType":"uint256"}],"stateMutability":"view"},{"type":"function","name":"userRewards","inputs":[{"name":"","type":"address","internalType":"address"}],"outputs":[{"name":"","type":"uint256","internalType":"uint256"}],"stateMutability":"view"},{"type":"event","name":"Approval","inputs":[{"name":"owner","type":"address","indexed":true,"internalType":"address"},{"name":"spender","type":"address","indexed":true,"internalType":"address"},{"name":"value","type":"uint256","indexed":false,"internalType":"uint256"}],"anonymous":false},{"type":"event","name":"ManagerChanged","inputs":[{"name":"newManager","type":"address","indexed":false,"internalType":"address"}],"anonymous":false},{"type":"event","name":"Recovered","inputs":[{"name":"token","type":"address","indexed":true,"internalType":"contract IERC20"},{"name":"tokenAmount","type":"uint256","indexed":false,"internalType":"uint256"}],"anonymous":false},{"type":"event","name":"RewardAdded","inputs":[{"name":"rewardRate","type":"uint256","indexed":false,"internalType":"uint256"},{"name":"tokenAmount","type":"uint256","indexed":false,"internalType":"uint256"}],"anonymous":false},{"type":"event","name":"RewardPaid","inputs":[{"name":"user","type":"address","indexed":true,"internalType":"address"},{"name":"tokenAmount","type":"uint256","indexed":false,"internalType":"uint256"}],"anonymous":false},{"type":"event","name":"RewardsDurationUpdated","inputs":[{"name":"newRewardDuration","type":"uint256","indexed":false,"internalType":"uint256"}],"anonymous":false},{"type":"event","name":"Staked","inputs":[{"name":"user","type":"address","indexed":true,"internalType":"address"},{"name":"tokenAmount","type":"uint256","indexed":false,"internalType":"uint256"}],"anonymous":false},{"type":"event","name":"Transfer","inputs":[{"name":"from","type":"address","indexed":true,"internalType":"address"},{"name":"to","type":"address","indexed":true,"internalType":"address"},{"name":"value","type":"uint256","indexed":false,"internalType":"uint256"}],"anonymous":false},{"type":"event","name":"Withdrawn","inputs":[{"name":"user","type":"address","indexed":true,"internalType":"address"},{"name":"tokenAmount","type":"uint256","indexed":false,"internalType":"uint256"}],"anonymous":false},{"type":"error","name":"LockedUntil","inputs":[{"name":"unlockTime","type":"uint256","internalType":"uint256"}]}],"bytecode":{"object":"0x61010060405234801562000011575f80fd5b5060405162001b1238038062001b128339810160408190526200003491620000dc565b5f8211620000885760405162461bcd60e51b815260206004820152601e60248201527f54696d654c6f636b4661726d3a20494e56414c49445f4455524154494f4e0000604482015260640160405180910390fd5b6001600160a01b0395861660805293851660a05291841660e052600c80546001600160a01b031916919094161790925560c05260065562000154565b6001600160a01b0381168114620000d9575f80fd5b50565b5f805f805f8060c08789031215620000f2575f80fd5b8651620000ff81620000c4565b60208801519096506200011281620000c4565b60408801519095506200012581620000c4565b60608801519094506200013881620000c4565b809350506080870151915060a087015190509295509295509295565b60805160a05160c05160e051611944620001ce5f395f818161035301528181610bd40152610e9001525f818161047601526108f501525f81816104e701528181610b0801528181610b5b01528181610e3b0152610fab01525f81816102c7015281816107e5015281816109370152610dea01526119445ff3fe608060405234801561000f575f80fd5b50600436106101a9575f3560e01c80628cc262146101ad57806301a598a6146101d35780630660f1e8146101f657806306fdde0314610215578063095ea7b31461024a5780630962c4f91461025d57806318160ddd1461026657806323b872dd1461026d5780632b8c8a6414610280578063313ce5671461029557806339509351146102af57806351ed6a30146102c257806370a08231146102f657806376b467b71461031e5780637b0a47ee1461033d57806380faa57d146103465780638f84aa091461034e57806390717dd31461037557806395d89b41146103885780639e447fc6146103ac578063a3fbbaae146103bf578063a457c2d7146103d2578063a4c0ae6f146103e5578063a9059cbb14610404578063b29a814014610417578063b88a802f1461042a578063c0ed00c914610432578063c8f33c9114610445578063cd3daf9d1461044e578063cddaf35814610456578063cf73a1bc1461045e578063d085835a14610471578063dd62ed3e14610498578063ee6c0d57146104d0578063f520e7e5146104d9578063f7c618c1146104e2575b5f80fd5b6101c06101bb36600461169f565b610509565b6040519081526020015b60405180910390f35b6101e66101e136600461169f565b61058d565b60405190151581526020016101ca565b6101c061020436600461169f565b600a6020525f908152604090205481565b61023d6040518060400160405280600981526020016856657273654661726d60b81b81525081565b6040516101ca91906116dc565b6101e661025836600461170e565b6105a9565b6101c060055481565b5f546101c0565b6101e661027b366004611738565b6105bf565b61029361028e366004611776565b6106f5565b005b61029d601281565b60405160ff90911681526020016101ca565b6101e66102bd36600461170e565b610852565b6102e97f000000000000000000000000000000000000000000000000000000000000000081565b6040516101ca919061178d565b6101c061030436600461169f565b6001600160a01b03165f9081526002602052604090205490565b6101c061032c36600461169f565b60096020525f908152604090205481565b6101c060045481565b6101c061088d565b6102e97f000000000000000000000000000000000000000000000000000000000000000081565b610293610383366004611776565b6108a3565b61023d60405180604001604052806005815260200164564641524d60d81b81525081565b6102936103ba366004611776565b610999565b6102936103cd36600461169f565b610bc9565b6101e66103e036600461170e565b610ce9565b6101c06103f336600461169f565b600b6020525f908152604090205481565b6101e661041236600461170e565b610d1f565b61029361042536600461170e565b610de8565b6101c0610ef0565b610293610440366004611776565b611018565b6101c060075481565b6101c0611122565b61029361118f565b600c546102e9906001600160a01b031681565b6101c07f000000000000000000000000000000000000000000000000000000000000000081565b6101c06104a63660046117a1565b6001600160a01b039182165f90815260036020908152604080832093909416825291909152205490565b6101c060085481565b6101c060065481565b6102e97f000000000000000000000000000000000000000000000000000000000000000081565b6001600160a01b0381165f908152600b6020526040812054819061052b611122565b61053591906117ec565b6001600160a01b0384165f908152600a602090815260408083205460029092529091205491925090670de0b6b3a7640000906105729084906117ff565b61057c9190611816565b6105869190611835565b9392505050565b6001600160a01b03165f90815260096020526040902054421090565b5f6105b53384846111b2565b5060015b92915050565b5f6105c8611122565b6008556105d361088d565b600755836105e081610509565b6001600160a01b0382165f908152600a6020908152604080832093909355600854600b909152919020558361061481610509565b6001600160a01b038083165f908152600a6020908152604080832094909455600854600b82528483205591891681526003825282812033825290915220545f1914610691576001600160a01b0386165f9081526003602090815260408083203384529091528120805486929061068b9084906117ec565b90915550505b61069a8661058d565b15156001036106de576001600160a01b0386165f9081526009602052604090819020549051635d6ef26160e01b815260048101919091526024015b60405180910390fd5b6106e9868686611213565b50600195945050505050565b6106fd611122565b60085561070861088d565b60075561071433610509565b335f908152600a6020908152604080832093909355600854600b9091529190205560055442101561078d57805f541161078d5760405162461bcd60e51b815260206004820152601b60248201527a54696d654c6f636b4661726d3a205354494c4c5f4541524e494e4760281b60448201526064016106d5565b336107978161058d565b15156001036107d6576001600160a01b0381165f9081526009602052604090819020549051635d6ef26160e01b815260048101919091526024016106d5565b6107e08282611281565b61080b7f00000000000000000000000000000000000000000000000000000000000000008284611305565b806001600160a01b03167f7084f5476618d8e60b11ef0d7d3f06914655adb8793e28ff7f018d4c76d505d58360405161084691815260200190565b60405180910390a25050565b335f8181526003602090815260408083206001600160a01b038716845290915281205490916105b5918590610888908690611835565b6111b2565b5f600554421061089e575060055490565b504290565b6108ab611122565b6008556108b661088d565b6007556108c233610509565b335f818152600a6020908152604080832094909455600854600b909152929020919091556108f0828261136d565b61091a7f000000000000000000000000000000000000000000000000000000000000000042611835565b6001600160a01b0382165f9081526009602052604090205561095e7f00000000000000000000000000000000000000000000000000000000000000008230856113ce565b806001600160a01b03167f9e71bc8eea02a63969f509818f2dafb9254532904319f9dbda79b67bd34a5f3d8360405161084691815260200190565b600c546001600160a01b031633146109c35760405162461bcd60e51b81526004016106d590611848565b6109cb611122565b6008556109d661088d565b6007555f54610a225760405162461bcd60e51b815260206004820152601860248201527754696d654c6f636b4661726d3a204e4f5f5354414b45525360401b60448201526064016106d5565b5f8111610a6e5760405162461bcd60e51b815260206004820152601a60248201527954696d654c6f636b4661726d3a20494e56414c49445f5241544560301b60448201526064016106d5565b600554426007819055600654610a8391611835565b60055542811115610b3a57600454821015610ae05760405162461bcd60e51b815260206004820181905260248201527f54696d654c6f636b4661726d3a20524154455f43414e545f444543524541534560448201526064016106d5565b5f610aeb42836117ec565b90505f60045482610afc91906117ff565b600c54909150610b37907f0000000000000000000000000000000000000000000000000000000000000000906001600160a01b031683611305565b50505b60048290556006545f90610b4f9084906117ff565b600c54909150610b8b907f0000000000000000000000000000000000000000000000000000000000000000906001600160a01b031630846113ce565b60408051848152602081018390527f6c07ee05dcf262f13abf9d87b846ee789d2f90fe991d495acd7d7fc109ee1f55910160405180910390a1505050565b336001600160a01b037f00000000000000000000000000000000000000000000000000000000000000001614610c3f5760405162461bcd60e51b815260206004820152601b60248201527a2a34b6b2a637b1b5a330b9369d1024a72b20a624a22fa7aba722a960291b60448201526064016106d5565b6001600160a01b038116610c935760405162461bcd60e51b815260206004820152601b60248201527a54696d654c6f636b4661726d3a2057524f4e475f4144445245535360281b60448201526064016106d5565b600c80546001600160a01b0319166001600160a01b0383161790556040517f198db6e425fb8aafd1823c6ca50be2d51e5764571a5ae0f0f21c6812e45def0b90610cde90839061178d565b60405180910390a150565b335f8181526003602090815260408083206001600160a01b038716845290915281205490916105b59185906108889086906117ec565b5f610d28611122565b600855610d3361088d565b600755610d3f33610509565b335f908152600a6020908152604080832093909355600854600b9091529190205582610d6a81610509565b6001600160a01b0382165f908152600a6020908152604080832093909355600854600b90915291902055610d9d3361058d565b1515600103610dd357335f9081526009602052604090819020549051635d6ef26160e01b815260048101919091526024016106d5565b610dde338585611213565b5060019392505050565b7f00000000000000000000000000000000000000000000000000000000000000006001600160a01b0316826001600160a01b031603610e395760405162461bcd60e51b81526004016106d59061187f565b7f00000000000000000000000000000000000000000000000000000000000000006001600160a01b0316826001600160a01b031603610e8a5760405162461bcd60e51b81526004016106d59061187f565b610eb5827f000000000000000000000000000000000000000000000000000000000000000083611305565b816001600160a01b03167f8c1256b8896378cd5044f80c202f9772b9d77dc85c8a6eb51967210b09bfaa288260405161084691815260200190565b5f610ef9611122565b600855610f0461088d565b600755610f1033610509565b335f818152600a6020908152604080832094909455600854600b90915292902091909155610f3d81610509565b91505f8211610f8e5760405162461bcd60e51b815260206004820152601e60248201527f54696d654c6f636b4661726d3a204e4f5448494e475f544f5f434c41494d000060448201526064016106d5565b6001600160a01b0381165f908152600a6020526040812055610fd17f00000000000000000000000000000000000000000000000000000000000000008284611305565b806001600160a01b03167fe2403640ba68fed3a2f88b7557551d1993f84b99bb10ff833f0cf8db0c5e04868360405161100c91815260200190565b60405180910390a25090565b600c546001600160a01b031633146110425760405162461bcd60e51b81526004016106d590611848565b5f81116110915760405162461bcd60e51b815260206004820152601e60248201527f54696d654c6f636b4661726d3a20494e56414c49445f4455524154494f4e000060448201526064016106d5565b60055442116110ed5760405162461bcd60e51b815260206004820152602260248201527f54696d654c6f636b4661726d3a204f4e474f494e475f4449535452494255544960448201526127a760f11b60648201526084016106d5565b60068190556040518181527ffb46ca5a5e06d4540d6387b930a7c978bce0db5f449ec6b3f5d07c6e1d44f2d390602001610cde565b5f80545f03611132575060085490565b5f60075461113e61088d565b61114891906117ec565b90505f8054670de0b6b3a76400006004548461116491906117ff565b61116e91906117ff565b6111789190611816565b9050806008546111889190611835565b9250505090565b335f908152600260205260409020546111a7906106f5565b6111af610ef0565b50565b6001600160a01b038381165f8181526003602090815260408083209487168084529482529182902085905590518481527f8c5be1e5ebec7d5bd14f71427d1e84f3dd0314c0f7b2291e5b200ac8c7c3b92591015b60405180910390a3505050565b6001600160a01b0383165f908152600260205260409020546112369082906117ec565b6001600160a01b038481165f8181526002602090815260408083209590955592861680825290849020805486019055925184815290915f805160206118ef8339815191529101611206565b5f805483900390556112928261140c565b600180549190910390556001600160a01b0381165f908152600260205260409020546112bf9083906117ec565b6001600160a01b0382165f818152600260205260408082209390935591515f805160206118ef833981519152906112f99086815260200190565b60405180910390a35050565b6040516001600160a01b03831660248201526044810182905261136890849063a9059cbb60e01b906064015b60408051601f198184030181529190526020810180516001600160e01b03166001600160e01b031990931692909217909152611583565b505050565b815f5461137a9190611835565b5f556113858261140c565b6001546113929190611835565b6001556001600160a01b0381165f818152600260209081526040808320805487019055518581525f805160206118ef83398151915291016112f9565b6040516001600160a01b03808516602483015283166044820152606481018290526114069085906323b872dd60e01b90608401611331565b50505050565b5f815f0361141b57505f919050565b816001600160801b82106114345760809190911c9060401b5b600160401b821061144a5760409190911c9060201b5b600160201b82106114605760209190911c9060101b5b6201000082106114755760109190911c9060081b5b61010082106114895760089190911c9060041b5b6010821061149c5760049190911c9060021b5b600882106114a85760011b5b60016114b48286611816565b6114be9083611835565b901c905060016114ce8286611816565b6114d89083611835565b901c905060016114e88286611816565b6114f29083611835565b901c905060016115028286611816565b61150c9083611835565b901c9050600161151c8286611816565b6115269083611835565b901c905060016115368286611816565b6115409083611835565b901c905060016115508286611816565b61155a9083611835565b901c90505f6115698286611816565b9050808210611578578061157a565b815b95945050505050565b5f80836001600160a01b03168360405161159d91906118b4565b5f604051808303815f865af19150503d805f81146115d6576040519150601f19603f3d011682016040523d82523d5f602084013e6115db565b606091505b5091509150816116265760405162461bcd60e51b815260206004820152601660248201527514d85999515490cc8c0e8810d0531317d1905253115160521b60448201526064016106d5565b805115611406578080602001905181019061164191906118cf565b6114065760405162461bcd60e51b815260206004820152601b60248201527a14d85999515490cc8c0e8813d4115490551253d397d19052531151602a1b60448201526064016106d5565b6001600160a01b03811681146111af575f80fd5b5f602082840312156116af575f80fd5b81356105868161168b565b5f5b838110156116d45781810151838201526020016116bc565b50505f910152565b602081525f82518060208401526116fa8160408501602087016116ba565b601f01601f19169190910160400192915050565b5f806040838503121561171f575f80fd5b823561172a8161168b565b946020939093013593505050565b5f805f6060848603121561174a575f80fd5b83356117558161168b565b925060208401356117658161168b565b929592945050506040919091013590565b5f60208284031215611786575f80fd5b5035919050565b6001600160a01b0391909116815260200190565b5f80604083850312156117b2575f80fd5b82356117bd8161168b565b915060208301356117cd8161168b565b809150509250929050565b634e487b7160e01b5f52601160045260245ffd5b818103818111156105b9576105b96117d8565b80820281158282048414176105b9576105b96117d8565b5f8261183057634e487b7160e01b5f52601260045260245ffd5b500490565b808201808211156105b9576105b96117d8565b6020808252601d908201527f54696d654c6f636b4661726d3a20494e56414c49445f4d414e41474552000000604082015260600190565b6020808252601b908201527a2a34b6b2a637b1b5a330b9369d1024a72b20a624a22faa27a5a2a760291b604082015260600190565b5f82516118c58184602087016116ba565b9190910192915050565b5f602082840312156118df575f80fd5b81518015158114610586575f80fdfeddf252ad1be2c89b69c2b068fc378daa952ba7f163c4a11628f55a4df523b3efa26469706673582212200b14061014743b8043ffc8a693b77d2933c4580861214b2e09c9fc8f29e4396b64736f6c63430008170033","linkReferences":{}},"methodIdentifiers":{"allowance(address,address)":"dd62ed3e","approve(address,uint256)":"095ea7b3","balanceOf(address)":"70a08231","changeManager(address)":"a3fbbaae","claimReward()":"b88a802f","decimals()":"313ce567","decreaseAllowance(address,uint256)":"a457c2d7","earned(address)":"008cc262","exitFarm()":"cddaf358","farmDeposit(uint256)":"90717dd3","farmWithdraw(uint256)":"2b8c8a64","increaseAllowance(address,uint256)":"39509351","lastTimeRewardApplicable()":"80faa57d","lastUpdateTime()":"c8f33c91","managerAddress()":"cf73a1bc","name()":"06fdde03","ownerAddress()":"8f84aa09","perTokenPaid(address)":"a4c0ae6f","perTokenStored()":"ee6c0d57","periodFinished()":"0962c4f9","recoverToken(address,uint256)":"b29a8140","rewardDuration()":"f520e7e5","rewardPerToken()":"cd3daf9d","rewardRate()":"7b0a47ee","rewardToken()":"f7c618c1","setRewardDuration(uint256)":"c0ed00c9","setRewardRate(uint256)":"9e447fc6","stakeToken()":"51ed6a30","symbol()":"95d89b41","timeLock()":"d085835a","tokensLocked(address)":"01a598a6","totalSupply()":"18160ddd","transfer(address,uint256)":"a9059cbb","transferFrom(address,address,uint256)":"23b872dd","unlockTime(address)":"76b467b7","userRewards(address)":"0660f1e8"},"id":9}