{"abi":[{"type":"function","name":"duplicate","inputs":[],"outputs":[{"name":"","type":"uint256","internalType":"uint256"}],"stateMutability":"view"},{"type":"function","name":"increment","inputs":[],"outputs":[],"stateMutability":"nonpayable"},{"type":"function","name":"number","inputs":[],"outputs":[{"name":"","type":"uint256","internalType":"uint256"}],"stateMutability":"view"},{"type":"function","name":"setNumber","inputs":[{"name":"newNumber","type":"uint256","internalType":"uint256"}],"outputs":[],"stateMutability":"nonpayable"}],"bytecode":{"object":"0x608060405234801561000f575f80fd5b506101498061001d5f395ff3fe608060405234801561000f575f80fd5b506004361061004a575f3560e01c80631f922d061461004e5780633fb5c1cb146100695780638381f58a1461007d578063d09de08a14610085575b5f80fd5b61005760015481565b60405190815260200160405180910390f35b61007b6100773660046100b7565b5f55565b005b6100575f5481565b61007b5f80549080610096836100e2565b90915550506001546100a881806100fa565b6100b291906100fa565b600155565b5f602082840312156100c7575f80fd5b5035919050565b634e487b7160e01b5f52601160045260245ffd5b5f600182016100f3576100f36100ce565b5060010190565b8082018082111561010d5761010d6100ce565b9291505056fea26469706673582212206099dd64995ee9321fa08e98bcd5c969fd9307870c0a85d92d4d565e25d1b26464736f6c63430008170033","linkReferences":{}},"methodIdentifiers":{"duplicate()":"1f922d06","increment()":"d09de08a","number()":"8381f58a","setNumber(uint256)":"3fb5c1cb"},"id":0}