{"abi":[{"type":"constructor","inputs":[],"stateMutability":"nonpayable"},{"type":"function","name":"allowance","inputs":[{"name":"_owner","type":"address","internalType":"address"},{"name":"_spender","type":"address","internalType":"address"}],"outputs":[{"name":"","type":"uint256","internalType":"uint256"}],"stateMutability":"view"},{"type":"function","name":"approve","inputs":[{"name":"_spender","type":"address","internalType":"address"},{"name":"_amount","type":"uint256","internalType":"uint256"}],"outputs":[{"name":"","type":"bool","internalType":"bool"}],"stateMutability":"nonpayable"},{"type":"function","name":"balanceOf","inputs":[{"name":"_account","type":"address","internalType":"address"}],"outputs":[{"name":"","type":"uint256","internalType":"uint256"}],"stateMutability":"view"},{"type":"function","name":"burn","inputs":[{"name":"_amount","type":"uint256","internalType":"uint256"}],"outputs":[],"stateMutability":"nonpayable"},{"type":"function","name":"decimals","inputs":[],"outputs":[{"name":"","type":"uint8","internalType":"uint8"}],"stateMutability":"view"},{"type":"function","name":"master","inputs":[],"outputs":[{"name":"","type":"address","internalType":"address"}],"stateMutability":"view"},{"type":"function","name":"mint","inputs":[{"name":"_amount","type":"uint256","internalType":"uint256"}],"outputs":[],"stateMutability":"nonpayable"},{"type":"function","name":"mintByMaster","inputs":[{"name":"_amount","type":"uint256","internalType":"uint256"},{"name":"_address","type":"address","internalType":"address"}],"outputs":[],"stateMutability":"nonpayable"},{"type":"function","name":"name","inputs":[],"outputs":[{"name":"","type":"string","internalType":"string"}],"stateMutability":"view"},{"type":"function","name":"symbol","inputs":[],"outputs":[{"name":"","type":"string","internalType":"string"}],"stateMutability":"view"},{"type":"function","name":"timestamp","inputs":[],"outputs":[{"name":"","type":"uint256","internalType":"uint256"}],"stateMutability":"view"},{"type":"function","name":"totalSupply","inputs":[],"outputs":[{"name":"","type":"uint256","internalType":"uint256"}],"stateMutability":"view"},{"type":"function","name":"transfer","inputs":[{"name":"_recipient","type":"address","internalType":"address"},{"name":"_amount","type":"uint256","internalType":"uint256"}],"outputs":[{"name":"","type":"bool","internalType":"bool"}],"stateMutability":"nonpayable"},{"type":"function","name":"transferFrom","inputs":[{"name":"_sender","type":"address","internalType":"address"},{"name":"_recipient","type":"address","internalType":"address"},{"name":"_amount","type":"uint256","internalType":"uint256"}],"outputs":[{"name":"","type":"bool","internalType":"bool"}],"stateMutability":"nonpayable"},{"type":"event","name":"Approval","inputs":[{"name":"owner","type":"address","indexed":true,"internalType":"address"},{"name":"spender","type":"address","indexed":true,"internalType":"address"},{"name":"value","type":"uint256","indexed":false,"internalType":"uint256"}],"anonymous":false},{"type":"event","name":"Transfer","inputs":[{"name":"from","type":"address","indexed":true,"internalType":"address"},{"name":"to","type":"address","indexed":true,"internalType":"address"},{"name":"value","type":"uint256","indexed":false,"internalType":"uint256"}],"anonymous":false}],"bytecode":{"object":"0x60c060405260096080908152682a32b9ba2a37b5b2b760b91b60a0525f906100279082610148565b506040805180820190915260058152642a16aa25a760d91b60208201526001906100519082610148565b506002805460ff1916601217905534801561006a575f80fd5b5060028054610100600160a81b031916336101008102919091179091556e01bbbbf868fa2cfecc335a0000000060038190555f9182526004602052604090912055610207565b634e487b7160e01b5f52604160045260245ffd5b600181811c908216806100d857607f821691505b6020821081036100f657634e487b7160e01b5f52602260045260245ffd5b50919050565b601f82111561014357805f5260205f20601f840160051c810160208510156101215750805b601f840160051c820191505b81811015610140575f815560010161012d565b50505b505050565b81516001600160401b03811115610161576101616100b0565b6101758161016f84546100c4565b846100fc565b602080601f8311600181146101a8575f84156101915750858301515b5f19600386901b1c1916600185901b1785556101ff565b5f85815260208120601f198616915b828110156101d6578886015182559484019460019091019084016101b7565b50858210156101f357878501515f19600388901b60f8161c191681555b505060018460011b0185555b505050505050565b6107db806102145f395ff3fe608060405234801561000f575f80fd5b50600436106100b8575f3560e01c806306fdde03146100bc578063095ea7b3146100da57806318160ddd146100fd57806323b872dd1461010f578063313ce5671461012257806342966c681461013757806370a082311461014c57806395d89b41146101745780639de555381461017c578063a0712d681461018f578063a9059cbb146101a2578063b80777ea146101b5578063dd62ed3e146101bb578063ee97f7f3146101f3575b5f80fd5b6100c4610223565b6040516100d191906105c2565b60405180910390f35b6100ed6100e8366004610629565b6102b2565b60405190151581526020016100d1565b6003545b6040519081526020016100d1565b6100ed61011d366004610651565b6102c8565b60025460405160ff90911681526020016100d1565b61014a61014536600461068a565b610316565b005b61010161015a3660046106a1565b6001600160a01b03165f9081526004602052604090205490565b6100c4610378565b61014a61018a3660046106c1565b610387565b61014a61019d36600461068a565b610468565b6100ed6101b0366004610629565b6104c3565b42610101565b6101016101c93660046106eb565b6001600160a01b039182165f90815260056020908152604080832093909416825291909152205490565b60025461020b9061010090046001600160a01b031681565b6040516001600160a01b0390911681526020016100d1565b60605f805461023190610713565b80601f016020809104026020016040519081016040528092919081815260200182805461025d90610713565b80156102a85780601f1061027f576101008083540402835291602001916102a8565b820191905f5260205f20905b81548152906001019060200180831161028b57829003601f168201915b5050505050905090565b5f6102be3384846104cf565b5060015b92915050565b6001600160a01b0383165f9081526005602090815260408083203380855292528220546103019186916102fc90869061075f565b6104cf565b61030c848484610530565b5060019392505050565b335f9081526004602052604090205461033090829061075f565b335f9081526004602052604090205560035461034d90829061075f565b6003556040518181525f9033905f80516020610786833981519152906020015b60405180910390a350565b60606001805461023190610713565b60025461010090046001600160a01b0316336001600160a01b0316146103eb5760405162461bcd60e51b81526020600482015260156024820152742a37b5b2b71d1024a72b20a624a22fa6a0a9aa22a960591b604482015260640160405180910390fd5b6001600160a01b0381165f9081526004602052604090205461040e908390610772565b6001600160a01b0382165f90815260046020526040902055600354610434908390610772565b6003556040518281526001600160a01b038216905f905f805160206107868339815191529060200160405180910390a35050565b335f90815260046020526040902054610482908290610772565b335f9081526004602052604090205560035461049f908290610772565b60035560405181815233905f905f805160206107868339815191529060200161036d565b5f6102be338484610530565b6001600160a01b038381165f8181526005602090815260408083209487168084529482529182902085905590518481527f8c5be1e5ebec7d5bd14f71427d1e84f3dd0314c0f7b2291e5b200ac8c7c3b92591015b60405180910390a3505050565b6001600160a01b0383165f9081526004602052604090205461055390829061075f565b6001600160a01b038085165f908152600460205260408082209390935590841681522054610582908290610772565b6001600160a01b038084165f8181526004602052604090819020939093559151908516905f80516020610786833981519152906105239085815260200190565b5f602080835283518060208501525f5b818110156105ee578581018301518582016040015282016105d2565b505f604082860101526040601f19601f8301168501019250505092915050565b80356001600160a01b0381168114610624575f80fd5b919050565b5f806040838503121561063a575f80fd5b6106438361060e565b946020939093013593505050565b5f805f60608486031215610663575f80fd5b61066c8461060e565b925061067a6020850161060e565b9150604084013590509250925092565b5f6020828403121561069a575f80fd5b5035919050565b5f602082840312156106b1575f80fd5b6106ba8261060e565b9392505050565b5f80604083850312156106d2575f80fd5b823591506106e26020840161060e565b90509250929050565b5f80604083850312156106fc575f80fd5b6107058361060e565b91506106e26020840161060e565b600181811c9082168061072757607f821691505b60208210810361074557634e487b7160e01b5f52602260045260245ffd5b50919050565b634e487b7160e01b5f52601160045260245ffd5b818103818111156102c2576102c261074b565b808201808211156102c2576102c261074b56feddf252ad1be2c89b69c2b068fc378daa952ba7f163c4a11628f55a4df523b3efa2646970667358221220dd1aaaf24d30723c2f02ac80568cc7291ab0200b7560dbaf44ee40b1d4e7ea1f64736f6c63430008170033","linkReferences":{}},"methodIdentifiers":{"allowance(address,address)":"dd62ed3e","approve(address,uint256)":"095ea7b3","balanceOf(address)":"70a08231","burn(uint256)":"42966c68","decimals()":"313ce567","master()":"ee97f7f3","mint(uint256)":"a0712d68","mintByMaster(uint256,address)":"9de55538","name()":"06fdde03","symbol()":"95d89b41","timestamp()":"b80777ea","totalSupply()":"18160ddd","transfer(address,uint256)":"a9059cbb","transferFrom(address,address,uint256)":"23b872dd"},"id":8}