{"abi":[{"type":"constructor","inputs":[{"name":"_stakeToken","type":"address","internalType":"contract IERC20"},{"name":"_rewardTokenA","type":"address","internalType":"contract IERC20"},{"name":"_rewardTokenB","type":"address","internalType":"contract IERC20"},{"name":"_defaultDuration","type":"uint256","internalType":"uint256"}],"stateMutability":"nonpayable"},{"type":"function","name":"allowance","inputs":[{"name":"_owner","type":"address","internalType":"address"},{"name":"_spender","type":"address","internalType":"address"}],"outputs":[{"name":"","type":"uint256","internalType":"uint256"}],"stateMutability":"view"},{"type":"function","name":"approve","inputs":[{"name":"_spender","type":"address","internalType":"address"},{"name":"_amount","type":"uint256","internalType":"uint256"}],"outputs":[{"name":"","type":"bool","internalType":"bool"}],"stateMutability":"nonpayable"},{"type":"function","name":"balanceOf","inputs":[{"name":"_walletAddress","type":"address","internalType":"address"}],"outputs":[{"name":"","type":"uint256","internalType":"uint256"}],"stateMutability":"view"},{"type":"function","name":"changeManager","inputs":[{"name":"_newManager","type":"address","internalType":"address"}],"outputs":[],"stateMutability":"nonpayable"},{"type":"function","name":"claimOwnership","inputs":[],"outputs":[],"stateMutability":"nonpayable"},{"type":"function","name":"claimReward","inputs":[],"outputs":[],"stateMutability":"nonpayable"},{"type":"function","name":"decimals","inputs":[],"outputs":[{"name":"","type":"uint8","internalType":"uint8"}],"stateMutability":"view"},{"type":"function","name":"decreaseAllowance","inputs":[{"name":"_spender","type":"address","internalType":"address"},{"name":"_subtractedValue","type":"uint256","internalType":"uint256"}],"outputs":[{"name":"","type":"bool","internalType":"bool"}],"stateMutability":"nonpayable"},{"type":"function","name":"earnedA","inputs":[{"name":"_walletAddress","type":"address","internalType":"address"}],"outputs":[{"name":"","type":"uint256","internalType":"uint256"}],"stateMutability":"view"},{"type":"function","name":"earnedB","inputs":[{"name":"_walletAddress","type":"address","internalType":"address"}],"outputs":[{"name":"","type":"uint256","internalType":"uint256"}],"stateMutability":"view"},{"type":"function","name":"exitFarm","inputs":[],"outputs":[],"stateMutability":"nonpayable"},{"type":"function","name":"exitFarmForced","inputs":[{"name":"_withdrawAddress","type":"address","internalType":"address"}],"outputs":[],"stateMutability":"nonpayable"},{"type":"function","name":"farmWithdraw","inputs":[{"name":"_withdrawAmount","type":"uint256","internalType":"uint256"}],"outputs":[],"stateMutability":"nonpayable"},{"type":"function","name":"increaseAllowance","inputs":[{"name":"_spender","type":"address","internalType":"address"},{"name":"_addedValue","type":"uint256","internalType":"uint256"}],"outputs":[{"name":"","type":"bool","internalType":"bool"}],"stateMutability":"nonpayable"},{"type":"function","name":"lastTimeRewardApplicable","inputs":[],"outputs":[{"name":"res","type":"uint256","internalType":"uint256"}],"stateMutability":"view"},{"type":"function","name":"lastUpdateTime","inputs":[],"outputs":[{"name":"","type":"uint256","internalType":"uint256"}],"stateMutability":"view"},{"type":"function","name":"makeDepositForUser","inputs":[{"name":"_stakeOwner","type":"address","internalType":"address"},{"name":"_stakeAmount","type":"uint256","internalType":"uint256"}],"outputs":[],"stateMutability":"nonpayable"},{"type":"function","name":"makeDepositForUserBulk","inputs":[{"name":"_stakeOwners","type":"address[]","internalType":"address[]"},{"name":"_stakeAmounts","type":"uint256[]","internalType":"uint256[]"}],"outputs":[],"stateMutability":"nonpayable"},{"type":"function","name":"managerAddress","inputs":[],"outputs":[{"name":"","type":"address","internalType":"address"}],"stateMutability":"view"},{"type":"function","name":"name","inputs":[],"outputs":[{"name":"","type":"string","internalType":"string"}],"stateMutability":"view"},{"type":"function","name":"ownerAddress","inputs":[],"outputs":[{"name":"","type":"address","internalType":"address"}],"stateMutability":"view"},{"type":"function","name":"perTokenPaidA","inputs":[{"name":"","type":"address","internalType":"address"}],"outputs":[{"name":"","type":"uint256","internalType":"uint256"}],"stateMutability":"view"},{"type":"function","name":"perTokenPaidB","inputs":[{"name":"","type":"address","internalType":"address"}],"outputs":[{"name":"","type":"uint256","internalType":"uint256"}],"stateMutability":"view"},{"type":"function","name":"perTokenStoredA","inputs":[],"outputs":[{"name":"","type":"uint256","internalType":"uint256"}],"stateMutability":"view"},{"type":"function","name":"perTokenStoredB","inputs":[],"outputs":[{"name":"","type":"uint256","internalType":"uint256"}],"stateMutability":"view"},{"type":"function","name":"periodFinished","inputs":[],"outputs":[{"name":"","type":"uint256","internalType":"uint256"}],"stateMutability":"view"},{"type":"function","name":"proposeNewOwner","inputs":[{"name":"_newOwner","type":"address","internalType":"address"}],"outputs":[],"stateMutability":"nonpayable"},{"type":"function","name":"proposedOwner","inputs":[],"outputs":[{"name":"","type":"address","internalType":"address"}],"stateMutability":"view"},{"type":"function","name":"recoverTokens","inputs":[{"name":"tokenAddress","type":"address","internalType":"contract IERC20"},{"name":"tokenAmount","type":"uint256","internalType":"uint256"}],"outputs":[],"stateMutability":"nonpayable"},{"type":"function","name":"rewardDuration","inputs":[],"outputs":[{"name":"","type":"uint256","internalType":"uint256"}],"stateMutability":"view"},{"type":"function","name":"rewardPerTokenA","inputs":[],"outputs":[{"name":"","type":"uint256","internalType":"uint256"}],"stateMutability":"view"},{"type":"function","name":"rewardPerTokenB","inputs":[],"outputs":[{"name":"","type":"uint256","internalType":"uint256"}],"stateMutability":"view"},{"type":"function","name":"rewardRateA","inputs":[],"outputs":[{"name":"","type":"uint256","internalType":"uint256"}],"stateMutability":"view"},{"type":"function","name":"rewardRateB","inputs":[],"outputs":[{"name":"","type":"uint256","internalType":"uint256"}],"stateMutability":"view"},{"type":"function","name":"rewardTokenA","inputs":[],"outputs":[{"name":"","type":"address","internalType":"contract IERC20"}],"stateMutability":"view"},{"type":"function","name":"rewardTokenB","inputs":[],"outputs":[{"name":"","type":"address","internalType":"contract IERC20"}],"stateMutability":"view"},{"type":"function","name":"setRewardDuration","inputs":[{"name":"_rewardDuration","type":"uint256","internalType":"uint256"}],"outputs":[],"stateMutability":"nonpayable"},{"type":"function","name":"setRewardRates","inputs":[{"name":"_newRewardRateA","type":"uint256","internalType":"uint256"},{"name":"_newRewardRateB","type":"uint256","internalType":"uint256"}],"outputs":[],"stateMutability":"nonpayable"},{"type":"function","name":"stakeToken","inputs":[],"outputs":[{"name":"","type":"address","internalType":"contract IERC20"}],"stateMutability":"view"},{"type":"function","name":"symbol","inputs":[],"outputs":[{"name":"","type":"string","internalType":"string"}],"stateMutability":"view"},{"type":"function","name":"totalSupply","inputs":[],"outputs":[{"name":"","type":"uint256","internalType":"uint256"}],"stateMutability":"view"},{"type":"function","name":"transfer","inputs":[{"name":"_recipient","type":"address","internalType":"address"},{"name":"_amount","type":"uint256","internalType":"uint256"}],"outputs":[{"name":"","type":"bool","internalType":"bool"}],"stateMutability":"nonpayable"},{"type":"function","name":"transferFrom","inputs":[{"name":"_sender","type":"address","internalType":"address"},{"name":"_recipient","type":"address","internalType":"address"},{"name":"_amount","type":"uint256","internalType":"uint256"}],"outputs":[{"name":"","type":"bool","internalType":"bool"}],"stateMutability":"nonpayable"},{"type":"function","name":"userRewardsA","inputs":[{"name":"","type":"address","internalType":"address"}],"outputs":[{"name":"","type":"uint256","internalType":"uint256"}],"stateMutability":"view"},{"type":"function","name":"userRewardsB","inputs":[{"name":"","type":"address","internalType":"address"}],"outputs":[{"name":"","type":"uint256","internalType":"uint256"}],"stateMutability":"view"},{"type":"event","name":"Approval","inputs":[{"name":"owner","type":"address","indexed":true,"internalType":"address"},{"name":"spender","type":"address","indexed":true,"internalType":"address"},{"name":"value","type":"uint256","indexed":false,"internalType":"uint256"}],"anonymous":false},{"type":"event","name":"ManagerChanged","inputs":[{"name":"newManager","type":"address","indexed":false,"internalType":"address"}],"anonymous":false},{"type":"event","name":"OwnerChanged","inputs":[{"name":"newOwner","type":"address","indexed":false,"internalType":"address"}],"anonymous":false},{"type":"event","name":"OwnerProposed","inputs":[{"name":"proposedOwner","type":"address","indexed":false,"internalType":"address"}],"anonymous":false},{"type":"event","name":"Recovered","inputs":[{"name":"token","type":"address","indexed":true,"internalType":"contract IERC20"},{"name":"tokenAmount","type":"uint256","indexed":false,"internalType":"uint256"}],"anonymous":false},{"type":"event","name":"RewardAdded","inputs":[{"name":"rewardRateA","type":"uint256","indexed":false,"internalType":"uint256"},{"name":"rewardRateB","type":"uint256","indexed":false,"internalType":"uint256"},{"name":"tokenAmountA","type":"uint256","indexed":false,"internalType":"uint256"},{"name":"tokenAmountB","type":"uint256","indexed":false,"internalType":"uint256"}],"anonymous":false},{"type":"event","name":"RewardPaid","inputs":[{"name":"user","type":"address","indexed":true,"internalType":"address"},{"name":"tokenAmountA","type":"uint256","indexed":false,"internalType":"uint256"},{"name":"tokenAmountB","type":"uint256","indexed":false,"internalType":"uint256"}],"anonymous":false},{"type":"event","name":"RewardsDurationUpdated","inputs":[{"name":"newRewardDuration","type":"uint256","indexed":false,"internalType":"uint256"}],"anonymous":false},{"type":"event","name":"Staked","inputs":[{"name":"user","type":"address","indexed":true,"internalType":"address"},{"name":"tokenAmount","type":"uint256","indexed":false,"internalType":"uint256"}],"anonymous":false},{"type":"event","name":"Transfer","inputs":[{"name":"from","type":"address","indexed":true,"internalType":"address"},{"name":"to","type":"address","indexed":true,"internalType":"address"},{"name":"value","type":"uint256","indexed":false,"internalType":"uint256"}],"anonymous":false},{"type":"event","name":"Withdrawn","inputs":[{"name":"user","type":"address","indexed":true,"internalType":"address"},{"name":"tokenAmount","type":"uint256","indexed":false,"internalType":"uint256"}],"anonymous":false}],"bytecode":{"object":"0x60e060405234801562000010575f80fd5b5060405162002160380380620021608339810160408190526200003391620000e8565b5f8111620000875760405162461bcd60e51b815260206004820152601f60248201527f507269766174654661726d32583a20494e56414c49445f4455524154494f4e00604482015260640160405180910390fd5b6001600160a01b0393841660805291831660a05290911660c052600f8054336001600160a01b0319918216811790925560118054909116909117905560075562000137565b80516001600160a01b0381168114620000e3575f80fd5b919050565b5f805f8060808587031215620000fc575f80fd5b6200010785620000cc565b93506200011760208601620000cc565b92506200012760408601620000cc565b6060959095015193969295505050565b60805160a05160c051611fc66200019a5f395f81816104d201528181610bce01528181610c71015261199d01525f81816103b201528181610b9601528181610c38015261196c01525f81816103630152818161146d01526116160152611fc65ff3fe608060405234801561000f575f80fd5b506004361061020d575f3560e01c8063069c9fae1461021157806306fdde0314610226578063095ea7b3146102645780630962c4f91461028757806318160ddd1461029e5780631820d739146102a55780632108e2db146102b857806323b872dd146102cb578063255cfca3146102de5780632b8c8a64146102e7578063313ce567146102fa57806333754b6e1461031457806337ba04a01461031d578063390cd4111461033057806339509351146103435780634e71e0c81461035657806351ed6a301461035e57806360fb36261461039257806368213329146103a55780636b8ba92c146103ad57806370a08231146103d457806380faa57d146103fc5780638c9d4f77146104045780638d519a49146104235780638f84aa091461044257806395d89b411461045557806398ceae5314610479578063a3fbbaae1461048c578063a457c2d71461049f578063a85594ad146104b2578063a9059cbb146104ba578063aa7b83e3146104cd578063b1f8100d146104f4578063b88a802f14610507578063c0ed00c91461050f578063c429f09414610522578063c8f33c911461052b578063cddaf35814610534578063cf73a1bc1461053c578063d153b60c1461054f578063d734894814610562578063dd62ed3e14610581578063efa1c63c146105b9578063f520e7e5146105c2578063fa57cbe3146105cb575b5f80fd5b61022461021f366004611c09565b6105ea565b005b61024e6040518060400160405280600981526020016856657273654661726d60b81b81525081565b60405161025b9190611c55565b60405180910390f35b610277610272366004611c09565b61067c565b604051901515815260200161025b565b61029060065481565b60405190815260200161025b565b5f54610290565b6102906102b3366004611c87565b610692565b6102246102c6366004611ce9565b610716565b6102776102d9366004611d4f565b6107f5565b61029060045481565b6102246102f5366004611d8d565b610941565b610302601281565b60405160ff909116815260200161025b565b61029060095481565b61022461032b366004611da4565b61094e565b61022461033e366004611c87565b610cf0565b610277610351366004611c09565b610d23565b610224610d5e565b6103857f000000000000000000000000000000000000000000000000000000000000000081565b60405161025b9190611dc4565b6102906103a0366004611c87565b610e11565b610290610e84565b6103857f000000000000000000000000000000000000000000000000000000000000000081565b6102906103e2366004611c87565b6001600160a01b03165f9081526002602052604090205490565b610290610ef3565b610290610412366004611c87565b600c6020525f908152604090205481565b610290610431366004611c87565b600b6020525f908152604090205481565b600f54610385906001600160a01b031681565b61024e60405180604001604052806005815260200164564641524d60d81b81525081565b610224610487366004611c09565b610f09565b61022461049a366004611c87565b610f41565b6102776104ad366004611c09565b610fe7565b61029061101d565b6102776104c8366004611c09565b611083565b6103857f000000000000000000000000000000000000000000000000000000000000000081565b610224610502366004611c87565b61116a565b610224611205565b61022461051d366004611d8d565b61120e565b610290600a5481565b61029060085481565b610224611319565b601154610385906001600160a01b031681565b601054610385906001600160a01b031681565b610290610570366004611c87565b600e6020525f908152604090205481565b61029061058f366004611dd8565b6001600160a01b039182165f90815260036020908152604080832093909416825291909152205490565b61029060055481565b61029060075481565b6102906105d9366004611c87565b600d6020525f908152604090205481565b600f546001600160a01b0316331461061d5760405162461bcd60e51b815260040161061490611e0f565b60405180910390fd5b600f546106359083906001600160a01b031683611324565b816001600160a01b03167f8c1256b8896378cd5044f80c202f9772b9d77dc85c8a6eb51967210b09bfaa288260405161067091815260200190565b60405180910390a25050565b5f61068833848461138c565b5060015b92915050565b6001600160a01b0381165f908152600d602052604081205481906106b461101d565b6106be9190611e59565b6001600160a01b0384165f908152600b602090815260408083205460029092529091205491925090670de0b6b3a7640000906106fb908490611e6c565b6107059190611e83565b61070f9190611ea2565b9392505050565b6011546001600160a01b031633146107405760405162461bcd60e51b815260040161061490611eb5565b82811461078f5760405162461bcd60e51b815260206004820152601d60248201527f507269766174654661726d32583a20494e56414c49445f494e505554530000006044820152606401610614565b5f835b808210156107ed576107e28686848181106107af576107af611eec565b90506020020160208101906107c49190611c87565b8585858181106107d6576107d6611eec565b905060200201356113ed565b816001019150610792565b505050505050565b5f6107fe61101d565b600955610809610e84565b600a55610814610ef3565b6008558361082181610692565b6001600160a01b0382165f908152600b602052604090205561084281610e11565b6001600160a01b0382165f908152600c6020908152604080832093909355600954600d825283832055600a54600e909152919020558361088181610692565b6001600160a01b0382165f908152600b60205260409020556108a281610e11565b6001600160a01b038083165f908152600c6020908152604080832094909455600954600d825284832055600a54600e82528483205591891681526003825282812033825290915220545f191461092a576001600160a01b0386165f90815260036020908152604080832033845290915281208054869290610924908490611e59565b90915550505b6109358686866114cf565b50600195945050505050565b61094b338261153d565b50565b6011546001600160a01b031633146109785760405162461bcd60e51b815260040161061490611eb5565b61098061101d565b60095561098b610e84565b600a55610996610ef3565b6008555f546109e35760405162461bcd60e51b8152602060048201526019602482015278507269766174654661726d32583a204e4f5f5354414b45525360381b6044820152606401610614565b5f8211610a325760405162461bcd60e51b815260206004820152601d60248201527f507269766174654661726d32583a20494e56414c49445f524154455f410000006044820152606401610614565b5f8111610a815760405162461bcd60e51b815260206004820152601d60248201527f507269766174654661726d32583a20494e56414c49445f524154455f420000006044820152606401610614565b600654426008819055600754610a9691611ea2565b60065542811115610c0157600454831015610aff5760405162461bcd60e51b815260206004820152602360248201527f507269766174654661726d32583a20524154455f415f43414e545f444543524560448201526241534560e81b6064820152608401610614565b600554821015610b5d5760405162461bcd60e51b815260206004820152602360248201527f507269766174654661726d32583a20524154455f425f43414e545f444543524560448201526241534560e81b6064820152608401610614565b5f610b684283611e59565b90505f60045482610b799190611e6c565b90505f60055483610b8a9190611e6c565b601154909150610bc5907f0000000000000000000000000000000000000000000000000000000000000000906001600160a01b031684611324565b601154610bfd907f0000000000000000000000000000000000000000000000000000000000000000906001600160a01b031683611324565b5050505b600483905560058290556007545f90610c1b908590611e6c565b90505f83600754610c2c9190611e6c565b601154909150610c68907f0000000000000000000000000000000000000000000000000000000000000000906001600160a01b03163085611677565b601154610ca1907f0000000000000000000000000000000000000000000000000000000000000000906001600160a01b03163084611677565b6040805186815260208101869052908101839052606081018290527f3ffbf598271669161ecd81ce333d0a0b574924ce7a91e396841eb2225e59e26e9060800160405180910390a15050505050565b600f546001600160a01b03163314610d1a5760405162461bcd60e51b815260040161061490611e0f565b61094b816116b5565b335f8181526003602090815260408083206001600160a01b03871684529091528120549091610688918590610d59908690611ea2565b61138c565b6010546001600160a01b03163314610db85760405162461bcd60e51b815260206004820181905260248201527f507269766174654661726d32583a20494e56414c49445f43414e4449444154456044820152606401610614565b601054600f80546001600160a01b0319166001600160a01b0390921691821790556040517fa2ea9883a321a3e97b8266c2b078bfeec6d50c711ed71f874a90d500ae2eaf3691610e0791611dc4565b60405180910390a1565b6001600160a01b0381165f908152600e60205260408120548190610e33610e84565b610e3d9190611e59565b6001600160a01b0384165f908152600c602090815260408083205460029092529091205491925090670de0b6b3a7640000908390610e7a906116e3565b6106fb9190611e6c565b5f6001545f03610e955750600a5490565b5f600854610ea1610ef3565b610eab9190611e59565b90505f600154670de0b6b3a764000060055484610ec89190611e6c565b610ed29190611e6c565b610edc9190611e83565b905080600a54610eec9190611ea2565b9250505090565b5f6006544210610f04575060065490565b504290565b600f546001600160a01b03163314610f335760405162461bcd60e51b815260040161061490611e0f565b610f3d82826113ed565b5050565b600f546001600160a01b03163314610f6b5760405162461bcd60e51b815260040161061490611e0f565b6001600160a01b038116610f915760405162461bcd60e51b815260040161061490611f00565b601180546001600160a01b0319166001600160a01b0383161790556040517f198db6e425fb8aafd1823c6ca50be2d51e5764571a5ae0f0f21c6812e45def0b90610fdc908390611dc4565b60405180910390a150565b335f8181526003602090815260408083206001600160a01b03871684529091528120549091610688918590610d59908690611e59565b5f80545f0361102d575060095490565b5f600854611039610ef3565b6110439190611e59565b90505f8054670de0b6b3a76400006004548461105f9190611e6c565b6110699190611e6c565b6110739190611e83565b905080600954610eec9190611ea2565b5f61108c61101d565b600955611097610e84565b600a556110a2610ef3565b6008556110ae33610692565b335f818152600b60205260409020919091556110c990610e11565b335f908152600c6020908152604080832093909355600954600d825283832055600a54600e90915291902055826110ff81610692565b6001600160a01b0382165f908152600b602052604090205561112081610e11565b6001600160a01b0382165f908152600c6020908152604080832093909355600954600d825283832055600a54600e909152919020556111603385856114cf565b5060019392505050565b600f546001600160a01b031633146111945760405162461bcd60e51b815260040161061490611e0f565b6001600160a01b0381166111ba5760405162461bcd60e51b815260040161061490611f00565b601080546001600160a01b0319166001600160a01b0383161790556040517f35b5da26a401fdbef2e1cfabeec2c10a6121d56f136be501a393c284cdd1af5890610fdc908390611dc4565b610f3d3361185a565b6011546001600160a01b031633146112385760405162461bcd60e51b815260040161061490611eb5565b5f81116112875760405162461bcd60e51b815260206004820152601f60248201527f507269766174654661726d32583a20494e56414c49445f4455524154494f4e006044820152606401610614565b60065442116112e45760405162461bcd60e51b815260206004820152602360248201527f507269766174654661726d32583a204f4e474f494e475f44495354524942555460448201526224a7a760e91b6064820152608401610614565b60078190556040518181527ffb46ca5a5e06d4540d6387b930a7c978bce0db5f449ec6b3f5d07c6e1d44f2d390602001610fdc565b611322336116b5565b565b6040516001600160a01b03831660248201526044810182905261138790849063a9059cbb60e01b906064015b60408051601f198184030181529190526020810180516001600160e01b03166001600160e01b031990931692909217909152611a0c565b505050565b6001600160a01b038381165f8181526003602090815260408083209487168084529482529182902085905590518481527f8c5be1e5ebec7d5bd14f71427d1e84f3dd0314c0f7b2291e5b200ac8c7c3b92591015b60405180910390a3505050565b6113f561101d565b600955611400610e84565b600a5561140b610ef3565b60085561141733610692565b335f818152600b602052604090209190915561143290610e11565b335f908152600c6020908152604080832093909355600954600d825283832055600a54600e909152919020556114688183611b14565b6114947f0000000000000000000000000000000000000000000000000000000000000000333084611677565b816001600160a01b03167f9e71bc8eea02a63969f509818f2dafb9254532904319f9dbda79b67bd34a5f3d8260405161067091815260200190565b6001600160a01b0383165f908152600260205260409020546114f2908290611e59565b6001600160a01b038481165f8181526002602090815260408083209590955592861680825290849020805486019055925184815290915f80516020611f7183398151915291016113e0565b61154561101d565b600955611550610e84565b600a5561155b610ef3565b60085561156733610692565b335f818152600b602052604090209190915561158290610e11565b335f908152600c6020908152604080832093909355600954600d825283832055600a54600e9091529190205560065442101561160757805f54116116075760405162461bcd60e51b815260206004820152601c60248201527b507269766174654661726d32583a205354494c4c5f4541524e494e4760201b6044820152606401610614565b6116118183611b7d565b61163c7f00000000000000000000000000000000000000000000000000000000000000008383611324565b816001600160a01b03167f7084f5476618d8e60b11ef0d7d3f06914655adb8793e28ff7f018d4c76d505d58260405161067091815260200190565b6040516001600160a01b03808516602483015283166044820152606481018290526116af9085906323b872dd60e01b90608401611350565b50505050565b6116be8161185a565b50506001600160a01b0381165f9081526002602052604090205461094b90829061153d565b5f815f036116f257505f919050565b816001600160801b821061170b5760809190911c9060401b5b600160401b82106117215760409190911c9060201b5b600160201b82106117375760209190911c9060101b5b62010000821061174c5760109190911c9060081b5b61010082106117605760089190911c9060041b5b601082106117735760049190911c9060021b5b6008821061177f5760011b5b600161178b8286611e83565b6117959083611ea2565b901c905060016117a58286611e83565b6117af9083611ea2565b901c905060016117bf8286611e83565b6117c99083611ea2565b901c905060016117d98286611e83565b6117e39083611ea2565b901c905060016117f38286611e83565b6117fd9083611ea2565b901c9050600161180d8286611e83565b6118179083611ea2565b901c905060016118278286611e83565b6118319083611ea2565b901c90505f6118408286611e83565b905080821061184f5780611851565b815b95945050505050565b5f8061186461101d565b60095561186f610e84565b600a5561187a610ef3565b60085561188633610692565b335f818152600b60205260409020919091556118a190610e11565b335f908152600c6020908152604080832093909355600954600d825283832055600a54600e909152919020556118d683610692565b91506118e183610e11565b90505f8211806118f057505f81115b61193c5760405162461bcd60e51b815260206004820152601f60248201527f507269766174654661726d32583a204e4f5448494e475f544f5f434c41494d006044820152606401610614565b6001600160a01b0383165f908152600b60209081526040808320839055600c9091528120558115611992576119927f00000000000000000000000000000000000000000000000000000000000000008484611324565b80156119c3576119c37f00000000000000000000000000000000000000000000000000000000000000008483611324565b60408051838152602081018390526001600160a01b038516917fd6f2c8500df5b44f11e9e48b91ff9f1b9d81bc496d55570c2b1b75bf65243f51910160405180910390a2915091565b5f80836001600160a01b031683604051611a269190611f36565b5f604051808303815f865af19150503d805f8114611a5f576040519150601f19603f3d011682016040523d82523d5f602084013e611a64565b606091505b509150915081611aaf5760405162461bcd60e51b815260206004820152601660248201527514d85999515490cc8c0e8810d0531317d1905253115160521b6044820152606401610614565b8051156116af5780806020019051810190611aca9190611f51565b6116af5760405162461bcd60e51b815260206004820152601b60248201527a14d85999515490cc8c0e8813d4115490551253d397d19052531151602a1b6044820152606401610614565b815f54611b219190611ea2565b5f55611b2c826116e3565b600154611b399190611ea2565b6001556001600160a01b0381165f818152600260209081526040808320805487019055518581525f80516020611f7183398151915291015b60405180910390a35050565b5f80548390039055611b8e826116e3565b600180549190910390556001600160a01b0381165f90815260026020526040902054611bbb908390611e59565b6001600160a01b0382165f818152600260205260408082209390935591515f80516020611f7183398151915290611b719086815260200190565b6001600160a01b038116811461094b575f80fd5b5f8060408385031215611c1a575f80fd5b8235611c2581611bf5565b946020939093013593505050565b5f5b83811015611c4d578181015183820152602001611c35565b50505f910152565b602081525f8251806020840152611c73816040850160208701611c33565b601f01601f19169190910160400192915050565b5f60208284031215611c97575f80fd5b813561070f81611bf5565b5f8083601f840112611cb2575f80fd5b5081356001600160401b03811115611cc8575f80fd5b6020830191508360208260051b8501011115611ce2575f80fd5b9250929050565b5f805f8060408587031215611cfc575f80fd5b84356001600160401b0380821115611d12575f80fd5b611d1e88838901611ca2565b90965094506020870135915080821115611d36575f80fd5b50611d4387828801611ca2565b95989497509550505050565b5f805f60608486031215611d61575f80fd5b8335611d6c81611bf5565b92506020840135611d7c81611bf5565b929592945050506040919091013590565b5f60208284031215611d9d575f80fd5b5035919050565b5f8060408385031215611db5575f80fd5b50508035926020909101359150565b6001600160a01b0391909116815260200190565b5f8060408385031215611de9575f80fd5b8235611df481611bf5565b91506020830135611e0481611bf5565b809150509250929050565b6020808252601c908201527b283934bb30ba32a330b936992c1d1024a72b20a624a22fa7aba722a960211b604082015260600190565b634e487b7160e01b5f52601160045260245ffd5b8181038181111561068c5761068c611e45565b808202811582820484141761068c5761068c611e45565b5f82611e9d57634e487b7160e01b5f52601260045260245ffd5b500490565b8082018082111561068c5761068c611e45565b6020808252601e908201527f507269766174654661726d32583a20494e56414c49445f4d414e414745520000604082015260600190565b634e487b7160e01b5f52603260045260245ffd5b6020808252601c908201527b507269766174654661726d32583a2057524f4e475f4144445245535360201b604082015260600190565b5f8251611f47818460208701611c33565b9190910192915050565b5f60208284031215611f61575f80fd5b8151801515811461070f575f80fdfeddf252ad1be2c89b69c2b068fc378daa952ba7f163c4a11628f55a4df523b3efa2646970667358221220dcee38c9cc044de5b1256bcb9bc4bccbe7ded0aa34309de68e307eaa999e0b6264736f6c63430008170033","linkReferences":{}},"methodIdentifiers":{"allowance(address,address)":"dd62ed3e","approve(address,uint256)":"095ea7b3","balanceOf(address)":"70a08231","changeManager(address)":"a3fbbaae","claimOwnership()":"4e71e0c8","claimReward()":"b88a802f","decimals()":"313ce567","decreaseAllowance(address,uint256)":"a457c2d7","earnedA(address)":"1820d739","earnedB(address)":"60fb3626","exitFarm()":"cddaf358","exitFarmForced(address)":"390cd411","farmWithdraw(uint256)":"2b8c8a64","increaseAllowance(address,uint256)":"39509351","lastTimeRewardApplicable()":"80faa57d","lastUpdateTime()":"c8f33c91","makeDepositForUser(address,uint256)":"98ceae53","makeDepositForUserBulk(address[],uint256[])":"2108e2db","managerAddress()":"cf73a1bc","name()":"06fdde03","ownerAddress()":"8f84aa09","perTokenPaidA(address)":"fa57cbe3","perTokenPaidB(address)":"d7348948","perTokenStoredA()":"33754b6e","perTokenStoredB()":"c429f094","periodFinished()":"0962c4f9","proposeNewOwner(address)":"b1f8100d","proposedOwner()":"d153b60c","recoverTokens(address,uint256)":"069c9fae","rewardDuration()":"f520e7e5","rewardPerTokenA()":"a85594ad","rewardPerTokenB()":"68213329","rewardRateA()":"255cfca3","rewardRateB()":"efa1c63c","rewardTokenA()":"6b8ba92c","rewardTokenB()":"aa7b83e3","setRewardDuration(uint256)":"c0ed00c9","setRewardRates(uint256,uint256)":"37ba04a0","stakeToken()":"51ed6a30","symbol()":"95d89b41","totalSupply()":"18160ddd","transfer(address,uint256)":"a9059cbb","transferFrom(address,address,uint256)":"23b872dd","userRewardsA(address)":"8d519a49","userRewardsB(address)":"8c9d4f77"},"id":3}