{"abi":[{"type":"function","name":"allowance","inputs":[{"name":"_owner","type":"address","internalType":"address"},{"name":"_spender","type":"address","internalType":"address"}],"outputs":[{"name":"","type":"uint256","internalType":"uint256"}],"stateMutability":"view"},{"type":"function","name":"approve","inputs":[{"name":"_spender","type":"address","internalType":"address"},{"name":"_amount","type":"uint256","internalType":"uint256"}],"outputs":[{"name":"","type":"bool","internalType":"bool"}],"stateMutability":"nonpayable"},{"type":"function","name":"balanceOf","inputs":[{"name":"_walletAddress","type":"address","internalType":"address"}],"outputs":[{"name":"","type":"uint256","internalType":"uint256"}],"stateMutability":"view"},{"type":"function","name":"decimals","inputs":[],"outputs":[{"name":"","type":"uint8","internalType":"uint8"}],"stateMutability":"view"},{"type":"function","name":"decreaseAllowance","inputs":[{"name":"_spender","type":"address","internalType":"address"},{"name":"_subtractedValue","type":"uint256","internalType":"uint256"}],"outputs":[{"name":"","type":"bool","internalType":"bool"}],"stateMutability":"nonpayable"},{"type":"function","name":"increaseAllowance","inputs":[{"name":"_spender","type":"address","internalType":"address"},{"name":"_addedValue","type":"uint256","internalType":"uint256"}],"outputs":[{"name":"","type":"bool","internalType":"bool"}],"stateMutability":"nonpayable"},{"type":"function","name":"name","inputs":[],"outputs":[{"name":"","type":"string","internalType":"string"}],"stateMutability":"view"},{"type":"function","name":"symbol","inputs":[],"outputs":[{"name":"","type":"string","internalType":"string"}],"stateMutability":"view"},{"type":"function","name":"totalSupply","inputs":[],"outputs":[{"name":"","type":"uint256","internalType":"uint256"}],"stateMutability":"view"},{"type":"event","name":"Approval","inputs":[{"name":"owner","type":"address","indexed":true,"internalType":"address"},{"name":"spender","type":"address","indexed":true,"internalType":"address"},{"name":"value","type":"uint256","indexed":false,"internalType":"uint256"}],"anonymous":false},{"type":"event","name":"Transfer","inputs":[{"name":"from","type":"address","indexed":true,"internalType":"address"},{"name":"to","type":"address","indexed":true,"internalType":"address"},{"name":"value","type":"uint256","indexed":false,"internalType":"uint256"}],"anonymous":false}],"bytecode":{"object":"0x608060405234801561000f575f80fd5b506103f28061001d5f395ff3fe608060405234801561000f575f80fd5b5060043610610081575f3560e01c806306fdde0314610085578063095ea7b3146100c357806318160ddd146100e6578063313ce567146100f7578063395093511461011157806370a082311461012457806395d89b411461014c578063a457c2d714610170578063dd62ed3e14610183575b5f80fd5b6100ad6040518060400160405280600981526020016856657273654661726d60b81b81525081565b6040516100ba91906102a2565b60405180910390f35b6100d66100d1366004610309565b6101bb565b60405190151581526020016100ba565b5f545b6040519081526020016100ba565b6100ff601281565b60405160ff90911681526020016100ba565b6100d661011f366004610309565b6101d1565b6100e9610132366004610331565b6001600160a01b03165f9081526002602052604090205490565b6100ad60405180604001604052806005815260200164564641524d60d81b81525081565b6100d661017e366004610309565b61020c565b6100e9610191366004610351565b6001600160a01b039182165f90815260036020908152604080832093909416825291909152205490565b5f6101c7338484610242565b5060015b92915050565b335f8181526003602090815260408083206001600160a01b038716845290915281205490916101c7918590610207908690610396565b610242565b335f8181526003602090815260408083206001600160a01b038716845290915281205490916101c79185906102079086906103a9565b6001600160a01b038381165f8181526003602090815260408083209487168084529482529182902085905590518481527f8c5be1e5ebec7d5bd14f71427d1e84f3dd0314c0f7b2291e5b200ac8c7c3b925910160405180910390a3505050565b5f602080835283518060208501525f5b818110156102ce578581018301518582016040015282016102b2565b505f604082860101526040601f19601f8301168501019250505092915050565b80356001600160a01b0381168114610304575f80fd5b919050565b5f806040838503121561031a575f80fd5b610323836102ee565b946020939093013593505050565b5f60208284031215610341575f80fd5b61034a826102ee565b9392505050565b5f8060408385031215610362575f80fd5b61036b836102ee565b9150610379602084016102ee565b90509250929050565b634e487b7160e01b5f52601160045260245ffd5b808201808211156101cb576101cb610382565b818103818111156101cb576101cb61038256fea26469706673582212200b93d2b99950ade5951ef725fbbdbb1b367bbbfada8f2d630571d1ada4bb3d3d64736f6c63430008170033","linkReferences":{}},"methodIdentifiers":{"allowance(address,address)":"dd62ed3e","approve(address,uint256)":"095ea7b3","balanceOf(address)":"70a08231","decimals()":"313ce567","decreaseAllowance(address,uint256)":"a457c2d7","increaseAllowance(address,uint256)":"39509351","name()":"06fdde03","symbol()":"95d89b41","totalSupply()":"18160ddd"},"id":11}