{"abi":[{"type":"function","name":"farmCodeHash","inputs":[],"outputs":[{"name":"","type":"bytes32","internalType":"bytes32"}],"stateMutability":"pure"}],"bytecode":{"object":"0x608060405234801561000f575f80fd5b50611b198061001d5f395ff3fe608060405234801561000f575f80fd5b5060043610610029575f3560e01c8063b13850ab1461002d575b5f80fd5b610035610047565b60405190815260200160405180910390f35b5f6040518060200161005890610078565b6020820181038252601f19601f8201166040525080519060200120905090565b611a5e806100868339019056fe60c060405234801562000010575f80fd5b5060405162001a5e38038062001a5e8339810160408190526200003391620000e1565b5f8111620000875760405162461bcd60e51b815260206004820152601c60248201527f53696d706c654661726d3a20494e56414c49445f4455524154494f4e00000000604482015260640160405180910390fd5b6001600160a01b03928316608052911660a052600b8054336001600160a01b03199182168117909255600d805490911690911790556006556200011f565b80516001600160a01b0381168114620000dc575f80fd5b919050565b5f805f60608486031215620000f4575f80fd5b620000ff84620000c5565b92506200010f60208501620000c5565b9150604084015190509250925092565b60805160a0516118ec620001725f395f81816104a801528181610a8801528181610adb01528181610d9d0152610ef901525f81816102bc015281816106f8015281816108bb0152610d4c01526118ec5ff3fe608060405234801561000f575f80fd5b50600436106101a9575f3560e01c80628cc262146101ad5780630660f1e8146101d357806306fdde03146101f2578063095ea7b3146102275780630962c4f91461024a57806318160ddd1461025357806323b872dd1461025a5780632b8c8a641461026d578063313ce56714610282578063395093511461029c5780634e71e0c8146102af57806351ed6a30146102b757806370a08231146102eb5780637b0a47ee1461031357806380faa57d1461031c5780638f84aa091461032457806390717dd31461033757806395d89b411461034a5780639e447fc61461036e578063a3fbbaae14610381578063a457c2d714610394578063a4c0ae6f146103a7578063a9059cbb146103c6578063b1f8100d146103d9578063b29a8140146103ec578063b88a802f146103ff578063c0ed00c914610407578063c8f33c911461041a578063cd3daf9d14610423578063cddaf3581461042b578063cf73a1bc14610433578063d153b60c14610446578063dd62ed3e14610459578063ee6c0d5714610491578063f520e7e51461049a578063f7c618c1146104a3575b5f80fd5b6101c06101bb3660046115e5565b6104ca565b6040519081526020015b60405180910390f35b6101c06101e13660046115e5565b60096020525f908152604090205481565b61021a6040518060400160405280600981526020016856657273654661726d60b81b81525081565b6040516101ca9190611622565b61023a610235366004611654565b61054e565b60405190151581526020016101ca565b6101c060055481565b5f546101c0565b61023a61026836600461167e565b610564565b61028061027b3660046116bc565b61064d565b005b61028a601281565b60405160ff90911681526020016101ca565b61023a6102aa366004611654565b610765565b6102806107a0565b6102de7f000000000000000000000000000000000000000000000000000000000000000081565b6040516101ca91906116d3565b6101c06102f93660046115e5565b6001600160a01b03165f9081526002602052604090205490565b6101c060045481565b6101c0610853565b600b546102de906001600160a01b031681565b6102806103453660046116bc565b610869565b61021a60405180604001604052806005815260200164564641524d60d81b81525081565b61028061037c3660046116bc565b61091d565b61028061038f3660046115e5565b610b49565b61023a6103a2366004611654565b610bef565b6101c06103b53660046115e5565b600a6020525f908152604090205481565b61023a6103d4366004611654565b610c25565b6102806103e73660046115e5565b610caf565b6102806103fa366004611654565b610d4a565b6101c0610e3f565b6102806104153660046116bc565b610f66565b6101c060075481565b6101c0611064565b6102806110d1565b600d546102de906001600160a01b031681565b600c546102de906001600160a01b031681565b6101c06104673660046116e7565b6001600160a01b039182165f90815260036020908152604080832093909416825291909152205490565b6101c060085481565b6101c060065481565b6102de7f000000000000000000000000000000000000000000000000000000000000000081565b6001600160a01b0381165f908152600a602052604081205481906104ec611064565b6104f69190611732565b6001600160a01b0384165f9081526009602090815260408083205460029092529091205491925090670de0b6b3a764000090610533908490611745565b61053d919061175c565b610547919061177b565b9392505050565b5f61055a3384846110f5565b5060015b92915050565b5f61056d611064565b600855610578610853565b60075583610585816104ca565b6001600160a01b0382165f90815260096020908152604080832093909355600854600a90915291902055836105b9816104ca565b6001600160a01b038083165f90815260096020908152604080832094909455600854600a82528483205591891681526003825282812033825290915220545f1914610636576001600160a01b0386165f90815260036020908152604080832033845290915281208054869290610630908490611732565b90915550505b610641868686611156565b50600195945050505050565b610655611064565b600855610660610853565b60075561066c336104ca565b335f90815260096020908152604080832093909355600854600a909152919020556005544210156106e857805f54116106e85760405162461bcd60e51b815260206004820152601960248201527853696d706c654661726d3a205354494c4c5f4541524e494e4760381b60448201526064015b60405180910390fd5b336106f382826111c4565b61071e7f00000000000000000000000000000000000000000000000000000000000000008284611248565b806001600160a01b03167f7084f5476618d8e60b11ef0d7d3f06914655adb8793e28ff7f018d4c76d505d58360405161075991815260200190565b60405180910390a25050565b335f8181526003602090815260408083206001600160a01b0387168452909152812054909161055a91859061079b90869061177b565b6110f5565b600c546001600160a01b031633146107fa5760405162461bcd60e51b815260206004820152601d60248201527f53696d706c654661726d3a20494e56414c49445f43414e44494441544500000060448201526064016106df565b600c54600b80546001600160a01b0319166001600160a01b0390921691821790556040517fa2ea9883a321a3e97b8266c2b078bfeec6d50c711ed71f874a90d500ae2eaf3691610849916116d3565b60405180910390a1565b5f6005544210610864575060055490565b504290565b610871611064565b60085561087c610853565b600755610888336104ca565b335f81815260096020908152604080832094909455600854600a909152929020919091556108b682826112b0565b6108e27f0000000000000000000000000000000000000000000000000000000000000000823085611311565b806001600160a01b03167f9e71bc8eea02a63969f509818f2dafb9254532904319f9dbda79b67bd34a5f3d8360405161075991815260200190565b600d546001600160a01b031633146109475760405162461bcd60e51b81526004016106df9061178e565b61094f611064565b60085561095a610853565b6007555f546109a45760405162461bcd60e51b815260206004820152601660248201527553696d706c654661726d3a204e4f5f5354414b45525360501b60448201526064016106df565b5f81116109ee5760405162461bcd60e51b815260206004820152601860248201527753696d706c654661726d3a20494e56414c49445f5241544560401b60448201526064016106df565b600554426007819055600654610a039161177b565b60055542811115610aba57600454821015610a605760405162461bcd60e51b815260206004820152601e60248201527f53696d706c654661726d3a20524154455f43414e545f4445435245415345000060448201526064016106df565b5f610a6b4283611732565b90505f60045482610a7c9190611745565b600d54909150610ab7907f0000000000000000000000000000000000000000000000000000000000000000906001600160a01b031683611248565b50505b60048290556006545f90610acf908490611745565b600d54909150610b0b907f0000000000000000000000000000000000000000000000000000000000000000906001600160a01b03163084611311565b60408051848152602081018390527f6c07ee05dcf262f13abf9d87b846ee789d2f90fe991d495acd7d7fc109ee1f55910160405180910390a1505050565b600b546001600160a01b03163314610b735760405162461bcd60e51b81526004016106df906117c3565b6001600160a01b038116610b995760405162461bcd60e51b81526004016106df906117f6565b600d80546001600160a01b0319166001600160a01b0383161790556040517f198db6e425fb8aafd1823c6ca50be2d51e5764571a5ae0f0f21c6812e45def0b90610be49083906116d3565b60405180910390a150565b335f8181526003602090815260408083206001600160a01b0387168452909152812054909161055a91859061079b908690611732565b5f610c2e611064565b600855610c39610853565b600755610c45336104ca565b335f90815260096020908152604080832093909355600854600a9091529190205582610c70816104ca565b6001600160a01b0382165f90815260096020908152604080832093909355600854600a90915291902055610ca5338585611156565b5060019392505050565b600b546001600160a01b03163314610cd95760405162461bcd60e51b81526004016106df906117c3565b6001600160a01b038116610cff5760405162461bcd60e51b81526004016106df906117f6565b600c80546001600160a01b0319166001600160a01b0383161790556040517f35b5da26a401fdbef2e1cfabeec2c10a6121d56f136be501a393c284cdd1af5890610be49083906116d3565b7f00000000000000000000000000000000000000000000000000000000000000006001600160a01b0316826001600160a01b031603610d9b5760405162461bcd60e51b81526004016106df90611829565b7f00000000000000000000000000000000000000000000000000000000000000006001600160a01b0316826001600160a01b031603610dec5760405162461bcd60e51b81526004016106df90611829565b600b54610e049083906001600160a01b031683611248565b816001600160a01b03167f8c1256b8896378cd5044f80c202f9772b9d77dc85c8a6eb51967210b09bfaa288260405161075991815260200190565b5f610e48611064565b600855610e53610853565b600755610e5f336104ca565b335f81815260096020908152604080832094909455600854600a90915292902091909155610e8c816104ca565b91505f8211610edc5760405162461bcd60e51b815260206004820152601c60248201527b53696d706c654661726d3a204e4f5448494e475f544f5f434c41494d60201b60448201526064016106df565b6001600160a01b0381165f90815260096020526040812055610f1f7f00000000000000000000000000000000000000000000000000000000000000008284611248565b806001600160a01b03167fe2403640ba68fed3a2f88b7557551d1993f84b99bb10ff833f0cf8db0c5e048683604051610f5a91815260200190565b60405180910390a25090565b600d546001600160a01b03163314610f905760405162461bcd60e51b81526004016106df9061178e565b5f8111610fde5760405162461bcd60e51b815260206004820152601c60248201527b29b4b6b83632a330b9369d1024a72b20a624a22fa22aa920aa24a7a760211b60448201526064016106df565b600554421161102f5760405162461bcd60e51b815260206004820181905260248201527f53696d706c654661726d3a204f4e474f494e475f444953545249425554494f4e60448201526064016106df565b60068190556040518181527ffb46ca5a5e06d4540d6387b930a7c978bce0db5f449ec6b3f5d07c6e1d44f2d390602001610be4565b5f80545f03611074575060085490565b5f600754611080610853565b61108a9190611732565b90505f8054670de0b6b3a7640000600454846110a69190611745565b6110b09190611745565b6110ba919061175c565b9050806008546110ca919061177b565b9250505090565b335f908152600260205260409020546110e98161064d565b6110f1610e3f565b5050565b6001600160a01b038381165f8181526003602090815260408083209487168084529482529182902085905590518481527f8c5be1e5ebec7d5bd14f71427d1e84f3dd0314c0f7b2291e5b200ac8c7c3b92591015b60405180910390a3505050565b6001600160a01b0383165f90815260026020526040902054611179908290611732565b6001600160a01b038481165f8181526002602090815260408083209590955592861680825290849020805486019055925184815290915f805160206118978339815191529101611149565b5f805483900390556111d58261134f565b600180549190910390556001600160a01b0381165f90815260026020526040902054611202908390611732565b6001600160a01b0382165f818152600260205260408082209390935591515f805160206118978339815191529061123c9086815260200190565b60405180910390a35050565b6040516001600160a01b0383166024820152604481018290526112ab90849063a9059cbb60e01b906064015b60408051601f198184030181529190526020810180516001600160e01b03166001600160e01b0319909316929092179091526114c6565b505050565b815f546112bd919061177b565b5f556112c88261134f565b6001546112d5919061177b565b6001556001600160a01b0381165f818152600260209081526040808320805487019055518581525f80516020611897833981519152910161123c565b6040516001600160a01b03808516602483015283166044820152606481018290526113499085906323b872dd60e01b90608401611274565b50505050565b5f815f0361135e57505f919050565b816001600160801b82106113775760809190911c9060401b5b600160401b821061138d5760409190911c9060201b5b600160201b82106113a35760209190911c9060101b5b6201000082106113b85760109190911c9060081b5b61010082106113cc5760089190911c9060041b5b601082106113df5760049190911c9060021b5b600882106113eb5760011b5b60016113f7828661175c565b611401908361177b565b901c90506001611411828661175c565b61141b908361177b565b901c9050600161142b828661175c565b611435908361177b565b901c90506001611445828661175c565b61144f908361177b565b901c9050600161145f828661175c565b611469908361177b565b901c90506001611479828661175c565b611483908361177b565b901c90506001611493828661175c565b61149d908361177b565b901c90505f6114ac828661175c565b90508082106114bb57806114bd565b815b95945050505050565b5f80836001600160a01b0316836040516114e0919061185c565b5f604051808303815f865af19150503d805f8114611519576040519150601f19603f3d011682016040523d82523d5f602084013e61151e565b606091505b5091509150816115695760405162461bcd60e51b815260206004820152601660248201527514d85999515490cc8c0e8810d0531317d1905253115160521b60448201526064016106df565b80511561134957808060200190518101906115849190611877565b6113495760405162461bcd60e51b815260206004820152601b60248201527a14d85999515490cc8c0e8813d4115490551253d397d19052531151602a1b60448201526064016106df565b6001600160a01b03811681146115e2575f80fd5b50565b5f602082840312156115f5575f80fd5b8135610547816115ce565b5f5b8381101561161a578181015183820152602001611602565b50505f910152565b602081525f8251806020840152611640816040850160208701611600565b601f01601f19169190910160400192915050565b5f8060408385031215611665575f80fd5b8235611670816115ce565b946020939093013593505050565b5f805f60608486031215611690575f80fd5b833561169b816115ce565b925060208401356116ab816115ce565b929592945050506040919091013590565b5f602082840312156116cc575f80fd5b5035919050565b6001600160a01b0391909116815260200190565b5f80604083850312156116f8575f80fd5b8235611703816115ce565b91506020830135611713816115ce565b809150509250929050565b634e487b7160e01b5f52601160045260245ffd5b8181038181111561055e5761055e61171e565b808202811582820484141761055e5761055e61171e565b5f8261177657634e487b7160e01b5f52601260045260245ffd5b500490565b8082018082111561055e5761055e61171e565b6020808252601b908201527a29b4b6b83632a330b9369d1024a72b20a624a22fa6a0a720a3a2a960291b604082015260600190565b60208082526019908201527829b4b6b83632a330b9369d1024a72b20a624a22fa7aba722a960391b604082015260600190565b60208082526019908201527853696d706c654661726d3a2057524f4e475f4144445245535360381b604082015260600190565b60208082526019908201527829b4b6b83632a330b9369d1024a72b20a624a22faa27a5a2a760391b604082015260600190565b5f825161186d818460208701611600565b9190910192915050565b5f60208284031215611887575f80fd5b81518015158114610547575f80fdfeddf252ad1be2c89b69c2b068fc378daa952ba7f163c4a11628f55a4df523b3efa26469706673582212209d4f913e58997039fb405911154e66e98f78d55c508d798e2e18d4d78c371c3064736f6c63430008170033a2646970667358221220c12a072cf57bbb6e80efd56d4099be8cffb133738f40bf7753f316ebb75ffa9264736f6c63430008170033","linkReferences":{}},"methodIdentifiers":{"farmCodeHash()":"b13850ab"},"id":1}