{"abi":[{"type":"constructor","inputs":[],"stateMutability":"nonpayable"},{"type":"function","name":"changeWorker","inputs":[{"name":"_newWorker","type":"address","internalType":"address"}],"outputs":[],"stateMutability":"nonpayable"},{"type":"function","name":"manageRates","inputs":[{"name":"_targetFarms","type":"address[]","internalType":"address[]"},{"name":"_newRates","type":"uint256[]","internalType":"uint256[]"}],"outputs":[],"stateMutability":"nonpayable"},{"type":"function","name":"owner","inputs":[],"outputs":[{"name":"","type":"address","internalType":"address"}],"stateMutability":"view"},{"type":"function","name":"recoverToken","inputs":[{"name":"tokenAddress","type":"address","internalType":"contract IERC20"},{"name":"tokenAmount","type":"uint256","internalType":"uint256"}],"outputs":[],"stateMutability":"nonpayable"},{"type":"function","name":"updateRatesF2","inputs":[{"name":"_targetFarm1","type":"address","internalType":"address"},{"name":"_newRate1","type":"uint256","internalType":"uint256"},{"name":"_targetFarm2","type":"address","internalType":"address"},{"name":"_newRate2","type":"uint256","internalType":"uint256"}],"outputs":[],"stateMutability":"nonpayable"},{"type":"function","name":"updateRatesF3","inputs":[{"name":"_targetFarm1","type":"address","internalType":"address"},{"name":"_newRate1","type":"uint256","internalType":"uint256"},{"name":"_targetFarm2","type":"address","internalType":"address"},{"name":"_newRate2","type":"uint256","internalType":"uint256"},{"name":"_targetFarm3","type":"address","internalType":"address"},{"name":"_newRate3","type":"uint256","internalType":"uint256"}],"outputs":[],"stateMutability":"nonpayable"},{"type":"function","name":"updateRatesF4","inputs":[{"name":"_targetFarm1","type":"address","internalType":"address"},{"name":"_newRate1","type":"uint256","internalType":"uint256"},{"name":"_targetFarm2","type":"address","internalType":"address"},{"name":"_newRate2","type":"uint256","internalType":"uint256"},{"name":"_targetFarm3","type":"address","internalType":"address"},{"name":"_newRate3","type":"uint256","internalType":"uint256"},{"name":"_targetFarm4","type":"address","internalType":"address"},{"name":"_newRate4","type":"uint256","internalType":"uint256"}],"outputs":[],"stateMutability":"nonpayable"},{"type":"function","name":"updateRatesF5","inputs":[{"name":"_targetFarm1","type":"address","internalType":"address"},{"name":"_newRate1","type":"uint256","internalType":"uint256"},{"name":"_targetFarm2","type":"address","internalType":"address"},{"name":"_newRate2","type":"uint256","internalType":"uint256"},{"name":"_targetFarm3","type":"address","internalType":"address"},{"name":"_newRate3","type":"uint256","internalType":"uint256"},{"name":"_targetFarm4","type":"address","internalType":"address"},{"name":"_newRate4","type":"uint256","internalType":"uint256"},{"name":"_targetFarm5","type":"address","internalType":"address"},{"name":"_newRate5","type":"uint256","internalType":"uint256"}],"outputs":[],"stateMutability":"nonpayable"},{"type":"function","name":"worker","inputs":[],"outputs":[{"name":"","type":"address","internalType":"address"}],"stateMutability":"view"}],"bytecode":{"object":"0x608060405234801561000f575f80fd5b505f8054336001600160a01b03199182168117835560018054909216179055610f7f90819061003d90395ff3fe608060405234801561000f575f80fd5b5060043610610081575f3560e01c80632705625a146100855780633a3bfe881461009a5780634d547ada146100ad5780637ef71fd0146100dc57806387e56ebe146100ef5780638da5cb5b14610102578063ae756ef514610114578063b29a814014610127578063bbfedcfb1461013a575b5f80fd5b610098610093366004610bb1565b61014d565b005b6100986100a8366004610c5b565b6102d3565b6001546100c0906001600160a01b031681565b6040516001600160a01b03909116815260200160405180910390f35b6100986100ea366004610cc1565b61036e565b6100986100fd366004610ce3565b6103e4565b5f546100c0906001600160a01b031681565b610098610122366004610d63565b6105b7565b610098610135366004610da8565b6106dc565b610098610148366004610dd2565b610754565b6001546001600160a01b031633146101805760405162461bcd60e51b815260040161017790610e6f565b60405180910390fd5b604080516003808252608082019092525f91602082016060803683375050604080516003808252608082019092529293505f9291506020820160608036833701905050905087825f815181106101d8576101d8610ea2565b60200260200101906001600160a01b031690816001600160a01b031681525050858260018151811061020c5761020c610ea2565b60200260200101906001600160a01b031690816001600160a01b031681525050838260028151811061024057610240610ea2565b60200260200101906001600160a01b031690816001600160a01b03168152505086815f8151811061027357610273610ea2565b602002602001018181525050848160018151811061029357610293610ea2565b60200260200101818152505082816002815181106102b3576102b3610ea2565b6020026020010181815250506102c9828261097d565b5050505050505050565b6001546001600160a01b031633146102fd5760405162461bcd60e51b815260040161017790610e6f565b6103688484808060200260200160405190810160405280939291908181526020018383602002808284375f92019190915250506040805160208088028281018201909352878252909350879250869182918501908490808284375f9201919091525061097d92505050565b50505050565b5f546001600160a01b031633146103c25760405162461bcd60e51b815260206004820152601860248201527729b4b6b83632a6b0b730b3b2b91d102727aa2fa7aba722a960411b6044820152606401610177565b600180546001600160a01b0319166001600160a01b0392909216919091179055565b6001546001600160a01b0316331461040e5760405162461bcd60e51b815260040161017790610e6f565b60408051600480825260a082019092525f9160208201608080368337505060408051600480825260a082019092529293505f9291506020820160808036833701905050905089825f8151811061046657610466610ea2565b60200260200101906001600160a01b031690816001600160a01b031681525050878260018151811061049a5761049a610ea2565b60200260200101906001600160a01b031690816001600160a01b03168152505085826002815181106104ce576104ce610ea2565b60200260200101906001600160a01b031690816001600160a01b031681525050838260038151811061050257610502610ea2565b60200260200101906001600160a01b031690816001600160a01b03168152505088815f8151811061053557610535610ea2565b602002602001018181525050868160018151811061055557610555610ea2565b602002602001018181525050848160028151811061057557610575610ea2565b602002602001018181525050828160038151811061059557610595610ea2565b6020026020010181815250506105ab828261097d565b50505050505050505050565b6001546001600160a01b031633146105e15760405162461bcd60e51b815260040161017790610e6f565b6040805160028082526060820183525f9260208301908036833750506040805160028082526060820183529394505f939092509060208301908036833701905050905085825f8151811061063757610637610ea2565b60200260200101906001600160a01b031690816001600160a01b031681525050838260018151811061066b5761066b610ea2565b60200260200101906001600160a01b031690816001600160a01b03168152505084815f8151811061069e5761069e610ea2565b60200260200101818152505082816001815181106106be576106be610ea2565b6020026020010181815250506106d4828261097d565b505050505050565b5f5460405163a9059cbb60e01b81526001600160a01b038481169263a9059cbb9261070f92909116908590600401610eb6565b6020604051808303815f875af115801561072b573d5f803e3d5ffd5b505050506040513d601f19601f8201168201806040525081019061074f9190610ecf565b505050565b6001546001600160a01b0316331461077e5760405162461bcd60e51b815260040161017790610e6f565b60408051600580825260c082019092525f916020820160a080368337505060408051600580825260c082019092529293505f9291506020820160a0803683370190505090508b825f815181106107d6576107d6610ea2565b60200260200101906001600160a01b031690816001600160a01b031681525050898260018151811061080a5761080a610ea2565b60200260200101906001600160a01b031690816001600160a01b031681525050878260028151811061083e5761083e610ea2565b60200260200101906001600160a01b031690816001600160a01b031681525050858260038151811061087257610872610ea2565b60200260200101906001600160a01b031690816001600160a01b03168152505083826004815181106108a6576108a6610ea2565b60200260200101906001600160a01b031690816001600160a01b0316815250508a815f815181106108d9576108d9610ea2565b60200260200101818152505088816001815181106108f9576108f9610ea2565b602002602001018181525050868160028151811061091957610919610ea2565b602002602001018181525050848160038151811061093957610939610ea2565b602002602001018181525050828160048151811061095957610959610ea2565b60200260200101818152505061096f828261097d565b505050505050505050505050565b5f5b825181101561074f575f83828151811061099b5761099b610ea2565b602002602001015190505f816001600160a01b031663f7c618c16040518163ffffffff1660e01b8152600401602060405180830381865afa1580156109e2573d5f803e3d5ffd5b505050506040513d601f19601f82011682018060405250810190610a069190610eee565b90505f826001600160a01b031663f520e7e56040518163ffffffff1660e01b8152600401602060405180830381865afa158015610a45573d5f803e3d5ffd5b505050506040513d601f19601f82011682018060405250810190610a699190610f09565b9050816001600160a01b031663095ea7b3878681518110610a8c57610a8c610ea2565b602002602001015183888881518110610aa757610aa7610ea2565b6020026020010151610ab99190610f20565b6040518363ffffffff1660e01b8152600401610ad6929190610eb6565b6020604051808303815f875af1158015610af2573d5f803e3d5ffd5b505050506040513d601f19601f82011682018060405250810190610b169190610ecf565b50826001600160a01b0316639e447fc6868681518110610b3857610b38610ea2565b60200260200101516040518263ffffffff1660e01b8152600401610b5e91815260200190565b5f604051808303815f87803b158015610b75575f80fd5b505af1158015610b87573d5f803e3d5ffd5b50506001909501945061097f9350505050565b6001600160a01b0381168114610bae575f80fd5b50565b5f805f805f8060c08789031215610bc6575f80fd5b8635610bd181610b9a565b9550602087013594506040870135610be881610b9a565b9350606087013592506080870135610bff81610b9a565b8092505060a087013590509295509295509295565b5f8083601f840112610c24575f80fd5b5081356001600160401b03811115610c3a575f80fd5b6020830191508360208260051b8501011115610c54575f80fd5b9250929050565b5f805f8060408587031215610c6e575f80fd5b84356001600160401b0380821115610c84575f80fd5b610c9088838901610c14565b90965094506020870135915080821115610ca8575f80fd5b50610cb587828801610c14565b95989497509550505050565b5f60208284031215610cd1575f80fd5b8135610cdc81610b9a565b9392505050565b5f805f805f805f80610100898b031215610cfb575f80fd5b8835610d0681610b9a565b9750602089013596506040890135610d1d81610b9a565b9550606089013594506080890135610d3481610b9a565b935060a0890135925060c0890135610d4b81610b9a565b8092505060e089013590509295985092959890939650565b5f805f8060808587031215610d76575f80fd5b8435610d8181610b9a565b9350602085013592506040850135610d9881610b9a565b9396929550929360600135925050565b5f8060408385031215610db9575f80fd5b8235610dc481610b9a565b946020939093013593505050565b5f805f805f805f805f806101408b8d031215610dec575f80fd5b8a35610df781610b9a565b995060208b0135985060408b0135610e0e81610b9a565b975060608b0135965060808b0135610e2581610b9a565b955060a08b0135945060c08b0135610e3c81610b9a565b935060e08b013592506101008b0135610e5481610b9a565b809250506101208b013590509295989b9194979a5092959850565b60208082526019908201527829b4b6b83632a6b0b730b3b2b91d102727aa2faba7a925a2a960391b604082015260600190565b634e487b7160e01b5f52603260045260245ffd5b6001600160a01b03929092168252602082015260400190565b5f60208284031215610edf575f80fd5b81518015158114610cdc575f80fd5b5f60208284031215610efe575f80fd5b8151610cdc81610b9a565b5f60208284031215610f19575f80fd5b5051919050565b8082028115828204841417610f4357634e487b7160e01b5f52601160045260245ffd5b9291505056fea2646970667358221220fe6b515a302749f1a2b46260bd9592f38ed489434efc0f17bc914d13681f16a064736f6c63430008170033","linkReferences":{}},"methodIdentifiers":{"changeWorker(address)":"7ef71fd0","manageRates(address[],uint256[])":"3a3bfe88","owner()":"8da5cb5b","recoverToken(address,uint256)":"b29a8140","updateRatesF2(address,uint256,address,uint256)":"ae756ef5","updateRatesF3(address,uint256,address,uint256,address,uint256)":"2705625a","updateRatesF4(address,uint256,address,uint256,address,uint256,address,uint256)":"87e56ebe","updateRatesF5(address,uint256,address,uint256,address,uint256,address,uint256,address,uint256)":"bbfedcfb","worker()":"4d547ada"},"id":7}