{"abi":[{"type":"constructor","inputs":[{"name":"_stakeToken","type":"address","internalType":"contract IERC20"},{"name":"_rewardToken","type":"address","internalType":"contract IERC20"},{"name":"_ownerAddress","type":"address","internalType":"address"},{"name":"_managerAddress","type":"address","internalType":"address"},{"name":"_defaultDuration","type":"uint256","internalType":"uint256"},{"name":"_defaultTimeLock","type":"uint256","internalType":"uint256"}],"stateMutability":"nonpayable"},{"type":"function","name":"allowance","inputs":[{"name":"_owner","type":"address","internalType":"address"},{"name":"_spender","type":"address","internalType":"address"}],"outputs":[{"name":"","type":"uint256","internalType":"uint256"}],"stateMutability":"view"},{"type":"function","name":"approve","inputs":[{"name":"_spender","type":"address","internalType":"address"},{"name":"_amount","type":"uint256","internalType":"uint256"}],"outputs":[{"name":"","type":"bool","internalType":"bool"}],"stateMutability":"nonpayable"},{"type":"function","name":"balanceOf","inputs":[{"name":"_walletAddress","type":"address","internalType":"address"}],"outputs":[{"name":"","type":"uint256","internalType":"uint256"}],"stateMutability":"view"},{"type":"function","name":"changeManager","inputs":[{"name":"_newManager","type":"address","internalType":"address"}],"outputs":[],"stateMutability":"nonpayable"},{"type":"function","name":"claimReward","inputs":[],"outputs":[{"name":"rewardAmount","type":"uint256","internalType":"uint256"}],"stateMutability":"nonpayable"},{"type":"function","name":"decimals","inputs":[],"outputs":[{"name":"","type":"uint8","internalType":"uint8"}],"stateMutability":"view"},{"type":"function","name":"decreaseAllowance","inputs":[{"name":"_spender","type":"address","internalType":"address"},{"name":"_subtractedValue","type":"uint256","internalType":"uint256"}],"outputs":[{"name":"","type":"bool","internalType":"bool"}],"stateMutability":"nonpayable"},{"type":"function","name":"earned","inputs":[{"name":"_walletAddress","type":"address","internalType":"address"}],"outputs":[{"name":"","type":"uint256","internalType":"uint256"}],"stateMutability":"view"},{"type":"function","name":"exitFarm","inputs":[],"outputs":[],"stateMutability":"nonpayable"},{"type":"function","name":"farmDeposit","inputs":[{"name":"_stakeAmount","type":"uint256","internalType":"uint256"}],"outputs":[],"stateMutability":"nonpayable"},{"type":"function","name":"farmWithdraw","inputs":[{"name":"_withdrawAmount","type":"uint256","internalType":"uint256"}],"outputs":[],"stateMutability":"nonpayable"},{"type":"function","name":"increaseAllowance","inputs":[{"name":"_spender","type":"address","internalType":"address"},{"name":"_addedValue","type":"uint256","internalType":"uint256"}],"outputs":[{"name":"","type":"bool","internalType":"bool"}],"stateMutability":"nonpayable"},{"type":"function","name":"lastTimeRewardApplicable","inputs":[],"outputs":[{"name":"res","type":"uint256","internalType":"uint256"}],"stateMutability":"view"},{"type":"function","name":"lastUpdateTime","inputs":[],"outputs":[{"name":"","type":"uint256","internalType":"uint256"}],"stateMutability":"view"},{"type":"function","name":"managerAddress","inputs":[],"outputs":[{"name":"","type":"address","internalType":"address"}],"stateMutability":"view"},{"type":"function","name":"name","inputs":[],"outputs":[{"name":"","type":"string","internalType":"string"}],"stateMutability":"view"},{"type":"function","name":"ownerAddress","inputs":[],"outputs":[{"name":"","type":"address","internalType":"address"}],"stateMutability":"view"},{"type":"function","name":"perTokenPaid","inputs":[{"name":"","type":"address","internalType":"address"}],"outputs":[{"name":"","type":"uint256","internalType":"uint256"}],"stateMutability":"view"},{"type":"function","name":"perTokenStored","inputs":[],"outputs":[{"name":"","type":"uint256","internalType":"uint256"}],"stateMutability":"view"},{"type":"function","name":"periodFinished","inputs":[],"outputs":[{"name":"","type":"uint256","internalType":"uint256"}],"stateMutability":"view"},{"type":"function","name":"recoverToken","inputs":[{"name":"tokenAddress","type":"address","internalType":"contract IERC20"},{"name":"tokenAmount","type":"uint256","internalType":"uint256"}],"outputs":[],"stateMutability":"nonpayable"},{"type":"function","name":"rewardDuration","inputs":[],"outputs":[{"name":"","type":"uint256","internalType":"uint256"}],"stateMutability":"view"},{"type":"function","name":"rewardPerToken","inputs":[],"outputs":[{"name":"","type":"uint256","internalType":"uint256"}],"stateMutability":"view"},{"type":"function","name":"rewardRate","inputs":[],"outputs":[{"name":"","type":"uint256","internalType":"uint256"}],"stateMutability":"view"},{"type":"function","name":"rewardToken","inputs":[],"outputs":[{"name":"","type":"address","internalType":"contract IERC20"}],"stateMutability":"view"},{"type":"function","name":"setRewardDuration","inputs":[{"name":"_rewardDuration","type":"uint256","internalType":"uint256"}],"outputs":[],"stateMutability":"nonpayable"},{"type":"function","name":"setRewardRate","inputs":[{"name":"_newRewardRate","type":"uint256","internalType":"uint256"}],"outputs":[],"stateMutability":"nonpayable"},{"type":"function","name":"stakeCount","inputs":[{"name":"_walletAddress","type":"address","internalType":"address"}],"outputs":[{"name":"","type":"uint256","internalType":"uint256"}],"stateMutability":"view"},{"type":"function","name":"stakeToken","inputs":[],"outputs":[{"name":"","type":"address","internalType":"contract IERC20"}],"stateMutability":"view"},{"type":"function","name":"stakes","inputs":[{"name":"","type":"address","internalType":"address"},{"name":"","type":"uint256","internalType":"uint256"}],"outputs":[{"name":"amount","type":"uint256","internalType":"uint256"},{"name":"unlockTime","type":"uint256","internalType":"uint256"}],"stateMutability":"view"},{"type":"function","name":"symbol","inputs":[],"outputs":[{"name":"","type":"string","internalType":"string"}],"stateMutability":"view"},{"type":"function","name":"timeLock","inputs":[],"outputs":[{"name":"","type":"uint256","internalType":"uint256"}],"stateMutability":"view"},{"type":"function","name":"totalSupply","inputs":[],"outputs":[{"name":"","type":"uint256","internalType":"uint256"}],"stateMutability":"view"},{"type":"function","name":"transfer","inputs":[{"name":"_recipient","type":"address","internalType":"address"},{"name":"_amount","type":"uint256","internalType":"uint256"}],"outputs":[{"name":"","type":"bool","internalType":"bool"}],"stateMutability":"nonpayable"},{"type":"function","name":"transferFrom","inputs":[{"name":"_sender","type":"address","internalType":"address"},{"name":"_recipient","type":"address","internalType":"address"},{"name":"_amount","type":"uint256","internalType":"uint256"}],"outputs":[{"name":"","type":"bool","internalType":"bool"}],"stateMutability":"nonpayable"},{"type":"function","name":"unlockable","inputs":[{"name":"_walletAddress","type":"address","internalType":"address"}],"outputs":[{"name":"unlockableAmount","type":"uint256","internalType":"uint256"}],"stateMutability":"view"},{"type":"function","name":"userRewards","inputs":[{"name":"","type":"address","internalType":"address"}],"outputs":[{"name":"","type":"uint256","internalType":"uint256"}],"stateMutability":"view"},{"type":"event","name":"Approval","inputs":[{"name":"owner","type":"address","indexed":true,"internalType":"address"},{"name":"spender","type":"address","indexed":true,"internalType":"address"},{"name":"value","type":"uint256","indexed":false,"internalType":"uint256"}],"anonymous":false},{"type":"event","name":"ManagerChanged","inputs":[{"name":"newManager","type":"address","indexed":false,"internalType":"address"}],"anonymous":false},{"type":"event","name":"Recovered","inputs":[{"name":"token","type":"address","indexed":true,"internalType":"contract IERC20"},{"name":"tokenAmount","type":"uint256","indexed":false,"internalType":"uint256"}],"anonymous":false},{"type":"event","name":"RewardAdded","inputs":[{"name":"rewardRate","type":"uint256","indexed":false,"internalType":"uint256"},{"name":"tokenAmount","type":"uint256","indexed":false,"internalType":"uint256"}],"anonymous":false},{"type":"event","name":"RewardPaid","inputs":[{"name":"user","type":"address","indexed":true,"internalType":"address"},{"name":"tokenAmount","type":"uint256","indexed":false,"internalType":"uint256"}],"anonymous":false},{"type":"event","name":"RewardsDurationUpdated","inputs":[{"name":"newRewardDuration","type":"uint256","indexed":false,"internalType":"uint256"}],"anonymous":false},{"type":"event","name":"Staked","inputs":[{"name":"user","type":"address","indexed":true,"internalType":"address"},{"name":"tokenAmount","type":"uint256","indexed":false,"internalType":"uint256"}],"anonymous":false},{"type":"event","name":"Transfer","inputs":[{"name":"from","type":"address","indexed":true,"internalType":"address"},{"name":"to","type":"address","indexed":true,"internalType":"address"},{"name":"value","type":"uint256","indexed":false,"internalType":"uint256"}],"anonymous":false},{"type":"event","name":"Withdrawn","inputs":[{"name":"user","type":"address","indexed":true,"internalType":"address"},{"name":"tokenAmount","type":"uint256","indexed":false,"internalType":"uint256"}],"anonymous":false}],"bytecode":{"object":"0x61010060405234801562000011575f80fd5b5060405162001f1338038062001f138339810160408190526200003491620000dc565b5f8211620000885760405162461bcd60e51b815260206004820181905260248201527f54696d654c6f636b4661726d56323a20494e56414c49445f4455524154494f4e604482015260640160405180910390fd5b6001600160a01b0395861660805293851660a05291841660e052600b80546001600160a01b031916919094161790925560c05260065562000154565b6001600160a01b0381168114620000d9575f80fd5b50565b5f805f805f8060c08789031215620000f2575f80fd5b8651620000ff81620000c4565b60208801519096506200011281620000c4565b60408801519095506200012581620000c4565b60608801519094506200013881620000c4565b809350506080870151915060a087015190509295509295509295565b60805160a05160c05160e051611d45620001ce5f395f818161036701528181610d9e015261107701525f818161049d01526109b801525f818161050e01528181610cd201528181610d2501528181611022015261119201525f81816102d2015281816107c401528181610a0a0152610fd10152611d455ff3fe608060405234801561000f575f80fd5b50600436106101b4575f3560e01c80628cc262146101b85780630660f1e8146101de57806306fdde03146101fd578063095ea7b3146102325780630962c4f91461025557806318160ddd1461025e57806323b872dd146102655780632b8c8a6414610278578063313ce5671461028d57806333060d90146102a757806339509351146102ba57806351ed6a30146102cd578063584b62a11461030157806370a08231146103295780637b0a47ee1461035157806380faa57d1461035a5780638f84aa091461036257806390717dd31461038957806395d89b411461039c578063979129c5146103c05780639e447fc6146103d3578063a3fbbaae146103e6578063a457c2d7146103f9578063a4c0ae6f1461040c578063a9059cbb1461042b578063b29a81401461043e578063b88a802f14610451578063c0ed00c914610459578063c8f33c911461046c578063cd3daf9d14610475578063cddaf3581461047d578063cf73a1bc14610485578063d085835a14610498578063dd62ed3e146104bf578063ee6c0d57146104f7578063f520e7e514610500578063f7c618c114610509575b5f80fd5b6101cb6101c6366004611a5e565b610530565b6040519081526020015b60405180910390f35b6101cb6101ec366004611a5e565b60096020525f908152604090205481565b6102256040518060400160405280600981526020016856657273654661726d60b81b81525081565b6040516101d59190611a9b565b610245610240366004611acd565b6105b4565b60405190151581526020016101d5565b6101cb60055481565b5f546101cb565b610245610273366004611af7565b6105ca565b61028b610286366004611b35565b61070b565b005b610295601281565b60405160ff90911681526020016101d5565b6101cb6102b5366004611a5e565b610831565b6102456102c8366004611acd565b6108b3565b6102f47f000000000000000000000000000000000000000000000000000000000000000081565b6040516101d59190611b4c565b61031461030f366004611acd565b6108ee565b604080519283526020830191909152016101d5565b6101cb610337366004611a5e565b6001600160a01b03165f9081526002602052604090205490565b6101cb60045481565b6101cb610926565b6102f47f000000000000000000000000000000000000000000000000000000000000000081565b61028b610397366004611b35565b61093c565b61022560405180604001604052806005815260200164564641524d60d81b81525081565b6101cb6103ce366004611a5e565b610a6c565b61028b6103e1366004611b35565b610b54565b61028b6103f4366004611a5e565b610d93565b610245610407366004611acd565b610eb7565b6101cb61041a366004611a5e565b600a6020525f908152604090205481565b610245610439366004611acd565b610eed565b61028b61044c366004611acd565b610fcf565b6101cb6110d7565b61028b610467366004611b35565b6111ff565b6101cb60075481565b6101cb61130a565b61028b611377565b600b546102f4906001600160a01b031681565b6101cb7f000000000000000000000000000000000000000000000000000000000000000081565b6101cb6104cd366004611b60565b6001600160a01b039182165f90815260036020908152604080832093909416825291909152205490565b6101cb60085481565b6101cb60065481565b6102f47f000000000000000000000000000000000000000000000000000000000000000081565b6001600160a01b0381165f908152600a6020526040812054819061055261130a565b61055c9190611bab565b6001600160a01b0384165f9081526009602090815260408083205460029092529091205491925090670de0b6b3a764000090610599908490611bbe565b6105a39190611bd5565b6105ad9190611bf4565b9392505050565b5f6105c033848461138e565b5060015b92915050565b5f6105d361130a565b6008556105de610926565b600755836105eb81610530565b6001600160a01b0382165f90815260096020908152604080832093909355600854600a909152919020558361061f81610530565b6001600160a01b038083165f90815260096020908152604080832094909455600854600a82528483205591891681526003825282812033825290915220545f191461069c576001600160a01b0386165f90815260036020908152604080832033845290915281208054869290610696908490611bab565b90915550505b6106a684876113ef565b6001600160a01b0385165f908152600c60209081526040808320815180830190925287825242828401908152815460018181018455928652939094209151600290930290910191825591519101556106ff8686866115d2565b50600195945050505050565b61071361130a565b60085561071e610926565b60075561072a33610530565b335f90815260096020908152604080832093909355600854600a909152919020556005544210156107aa57805f54116107aa5760405162461bcd60e51b815260206004820152601d60248201527f54696d654c6f636b4661726d56323a205354494c4c5f4541524e494e4700000060448201526064015b60405180910390fd5b336107b582826113ef565b6107bf8282611640565b6107ea7f000000000000000000000000000000000000000000000000000000000000000082846116c4565b806001600160a01b03167f7084f5476618d8e60b11ef0d7d3f06914655adb8793e28ff7f018d4c76d505d58360405161082591815260200190565b60405180910390a25050565b6001600160a01b0381165f908152600c6020908152604080832080548251818502810185019093528083528493849084015b828210156108a6578382905f5260205f2090600202016040518060400160405290815f820154815260200160018201548152505081526020019060010190610863565b5050915195945050505050565b335f8181526003602090815260408083206001600160a01b038716845290915281205490916105c09185906108e9908690611bf4565b61138e565b600c602052815f5260405f208181548110610907575f80fd5b5f91825260209091206002909102018054600190910154909250905082565b5f6005544210610937575060055490565b504290565b61094461130a565b60085561094f610926565b60075561095b33610530565b335f81815260096020908152604080832094909455600854600a90915292902091909155610989828261172c565b6001600160a01b0381165f908152600c60209081526040918290208251808401909352848352919081016109dd7f000000000000000000000000000000000000000000000000000000000000000042611bf4565b90528154600181810184555f93845260209384902083516002909302019182559290910151910155610a317f000000000000000000000000000000000000000000000000000000000000000082308561178d565b806001600160a01b03167f9e71bc8eea02a63969f509818f2dafb9254532904319f9dbda79b67bd34a5f3d8360405161082591815260200190565b6001600160a01b0381165f908152600c6020908152604080832080548251818502810185019093528083528493849084015b82821015610ae1578382905f5260205f2090600202016040518060400160405290815f820154815260200160018201548152505081526020019060010190610a9e565b505082519293505f9150505b81811015610b4c57828181518110610b0757610b07611c07565b6020026020010151602001514210610b4457828181518110610b2b57610b2b611c07565b60200260200101515f015184610b419190611bf4565b93505b600101610aed565b505050919050565b600b546001600160a01b03163314610b7e5760405162461bcd60e51b81526004016107a190611c1b565b610b8661130a565b600855610b91610926565b6007555f54610bdf5760405162461bcd60e51b815260206004820152601a60248201527954696d654c6f636b4661726d56323a204e4f5f5354414b45525360301b60448201526064016107a1565b5f8111610c2d5760405162461bcd60e51b815260206004820152601c60248201527b54696d654c6f636b4661726d56323a20494e56414c49445f5241544560201b60448201526064016107a1565b600554426007819055600654610c4291611bf4565b60055542811115610d0457600454821015610caa5760405162461bcd60e51b815260206004820152602260248201527f54696d654c6f636b4661726d56323a20524154455f43414e545f444543524541604482015261534560f01b60648201526084016107a1565b5f610cb54283611bab565b90505f60045482610cc69190611bbe565b600b54909150610d01907f0000000000000000000000000000000000000000000000000000000000000000906001600160a01b0316836116c4565b50505b60048290556006545f90610d19908490611bbe565b600b54909150610d55907f0000000000000000000000000000000000000000000000000000000000000000906001600160a01b0316308461178d565b60408051848152602081018390527f6c07ee05dcf262f13abf9d87b846ee789d2f90fe991d495acd7d7fc109ee1f55910160405180910390a1505050565b336001600160a01b037f00000000000000000000000000000000000000000000000000000000000000001614610e0b5760405162461bcd60e51b815260206004820152601d60248201527f54696d654c6f636b4661726d56323a20494e56414c49445f4f574e455200000060448201526064016107a1565b6001600160a01b038116610e615760405162461bcd60e51b815260206004820152601d60248201527f54696d654c6f636b4661726d56323a2057524f4e475f4144445245535300000060448201526064016107a1565b600b80546001600160a01b0319166001600160a01b0383161790556040517f198db6e425fb8aafd1823c6ca50be2d51e5764571a5ae0f0f21c6812e45def0b90610eac908390611b4c565b60405180910390a150565b335f8181526003602090815260408083206001600160a01b038716845290915281205490916105c09185906108e9908690611bab565b5f610ef661130a565b600855610f01610926565b600755610f0d33610530565b335f90815260096020908152604080832093909355600854600a9091529190205582610f3881610530565b6001600160a01b0382165f90815260096020908152604080832093909355600854600a90915291902055610f6c83336113ef565b6001600160a01b0384165f908152600c6020908152604080832081518083019092528682524282840190815281546001818101845592865293909420915160029093029091019182559151910155610fc53385856115d2565b5060019392505050565b7f00000000000000000000000000000000000000000000000000000000000000006001600160a01b0316826001600160a01b0316036110205760405162461bcd60e51b81526004016107a190611c52565b7f00000000000000000000000000000000000000000000000000000000000000006001600160a01b0316826001600160a01b0316036110715760405162461bcd60e51b81526004016107a190611c52565b61109c827f0000000000000000000000000000000000000000000000000000000000000000836116c4565b816001600160a01b03167f8c1256b8896378cd5044f80c202f9772b9d77dc85c8a6eb51967210b09bfaa288260405161082591815260200190565b5f6110e061130a565b6008556110eb610926565b6007556110f733610530565b335f81815260096020908152604080832094909455600854600a9091529290209190915561112481610530565b91505f82116111755760405162461bcd60e51b815260206004820181905260248201527f54696d654c6f636b4661726d56323a204e4f5448494e475f544f5f434c41494d60448201526064016107a1565b6001600160a01b0381165f908152600960205260408120556111b87f000000000000000000000000000000000000000000000000000000000000000082846116c4565b806001600160a01b03167fe2403640ba68fed3a2f88b7557551d1993f84b99bb10ff833f0cf8db0c5e0486836040516111f391815260200190565b60405180910390a25090565b600b546001600160a01b031633146112295760405162461bcd60e51b81526004016107a190611c1b565b5f81116112785760405162461bcd60e51b815260206004820181905260248201527f54696d654c6f636b4661726d56323a20494e56414c49445f4455524154494f4e60448201526064016107a1565b60055442116112d55760405162461bcd60e51b8152602060048201526024808201527f54696d654c6f636b4661726d56323a204f4e474f494e475f44495354524942556044820152632a24a7a760e11b60648201526084016107a1565b60068190556040518181527ffb46ca5a5e06d4540d6387b930a7c978bce0db5f449ec6b3f5d07c6e1d44f2d390602001610eac565b5f80545f0361131a575060085490565b5f600754611326610926565b6113309190611bab565b90505f8054670de0b6b3a76400006004548461134c9190611bbe565b6113569190611bbe565b6113609190611bd5565b9050806008546113709190611bf4565b9250505090565b61138361028633610a6c565b61138b6110d7565b50565b6001600160a01b038381165f8181526003602090815260408083209487168084529482529182902085905590518481527f8c5be1e5ebec7d5bd14f71427d1e84f3dd0314c0f7b2291e5b200ac8c7c3b92591015b60405180910390a3505050565b6001600160a01b0381165f908152600c6020526040812090805b8254821015611570575f83838154811061142557611425611c07565b905f5260205f20906002020190508060010154421015611452578261144981611c89565b93505050611409565b80545f61145f8489611bab565b90505f81831061146f5781611471565b825b905061147d8186611bf4565b945080845f015f8282546114919190611bab565b909155505083545f036115475786546001101561150457865487906114b890600190611bab565b815481106114c8576114c8611c07565b905f5260205f2090600202018787815481106114e6576114e6611c07565b5f918252602090912082546002909202019081556001918201549101555b8680548061151457611514611ca1565b5f8281526020812060025f199093019283020181815560010155905586548690036115425750505050611570565b611555565b8561155181611c89565b9650505b88850361156757505050505050505050565b50505050611409565b8481146115cb5760405162461bcd60e51b815260206004820152602360248201527f54696d654c6f636b4661726d56323a20554e4c4f434b5f494e5355464649434960448201526211539560ea1b60648201526084016107a1565b5050505050565b6001600160a01b0383165f908152600260205260409020546115f5908290611bab565b6001600160a01b038481165f8181526002602090815260408083209590955592861680825290849020805486019055925184815290915f80516020611cf083398151915291016113e2565b5f80548390039055611651826117cb565b600180549190910390556001600160a01b0381165f9081526002602052604090205461167e908390611bab565b6001600160a01b0382165f818152600260205260408082209390935591515f80516020611cf0833981519152906116b89086815260200190565b60405180910390a35050565b6040516001600160a01b03831660248201526044810182905261172790849063a9059cbb60e01b906064015b60408051601f198184030181529190526020810180516001600160e01b03166001600160e01b031990931692909217909152611942565b505050565b815f546117399190611bf4565b5f55611744826117cb565b6001546117519190611bf4565b6001556001600160a01b0381165f818152600260209081526040808320805487019055518581525f80516020611cf083398151915291016116b8565b6040516001600160a01b03808516602483015283166044820152606481018290526117c59085906323b872dd60e01b906084016116f0565b50505050565b5f815f036117da57505f919050565b816001600160801b82106117f35760809190911c9060401b5b600160401b82106118095760409190911c9060201b5b600160201b821061181f5760209190911c9060101b5b6201000082106118345760109190911c9060081b5b61010082106118485760089190911c9060041b5b6010821061185b5760049190911c9060021b5b600882106118675760011b5b60016118738286611bd5565b61187d9083611bf4565b901c9050600161188d8286611bd5565b6118979083611bf4565b901c905060016118a78286611bd5565b6118b19083611bf4565b901c905060016118c18286611bd5565b6118cb9083611bf4565b901c905060016118db8286611bd5565b6118e59083611bf4565b901c905060016118f58286611bd5565b6118ff9083611bf4565b901c9050600161190f8286611bd5565b6119199083611bf4565b901c90505f6119288286611bd5565b90508082106119375780611939565b815b95945050505050565b5f80836001600160a01b03168360405161195c9190611cb5565b5f604051808303815f865af19150503d805f8114611995576040519150601f19603f3d011682016040523d82523d5f602084013e61199a565b606091505b5091509150816119e55760405162461bcd60e51b815260206004820152601660248201527514d85999515490cc8c0e8810d0531317d1905253115160521b60448201526064016107a1565b8051156117c55780806020019051810190611a009190611cd0565b6117c55760405162461bcd60e51b815260206004820152601b60248201527a14d85999515490cc8c0e8813d4115490551253d397d19052531151602a1b60448201526064016107a1565b6001600160a01b038116811461138b575f80fd5b5f60208284031215611a6e575f80fd5b81356105ad81611a4a565b5f5b83811015611a93578181015183820152602001611a7b565b50505f910152565b602081525f8251806020840152611ab9816040850160208701611a79565b601f01601f19169190910160400192915050565b5f8060408385031215611ade575f80fd5b8235611ae981611a4a565b946020939093013593505050565b5f805f60608486031215611b09575f80fd5b8335611b1481611a4a565b92506020840135611b2481611a4a565b929592945050506040919091013590565b5f60208284031215611b45575f80fd5b5035919050565b6001600160a01b0391909116815260200190565b5f8060408385031215611b71575f80fd5b8235611b7c81611a4a565b91506020830135611b8c81611a4a565b809150509250929050565b634e487b7160e01b5f52601160045260245ffd5b818103818111156105c4576105c4611b97565b80820281158282048414176105c4576105c4611b97565b5f82611bef57634e487b7160e01b5f52601260045260245ffd5b500490565b808201808211156105c4576105c4611b97565b634e487b7160e01b5f52603260045260245ffd5b6020808252601f908201527f54696d654c6f636b4661726d56323a20494e56414c49445f4d414e4147455200604082015260600190565b6020808252601d908201527f54696d654c6f636b4661726d56323a20494e56414c49445f544f4b454e000000604082015260600190565b5f60018201611c9a57611c9a611b97565b5060010190565b634e487b7160e01b5f52603160045260245ffd5b5f8251611cc6818460208701611a79565b9190910192915050565b5f60208284031215611ce0575f80fd5b815180151581146105ad575f80fdfeddf252ad1be2c89b69c2b068fc378daa952ba7f163c4a11628f55a4df523b3efa2646970667358221220d029487a84784a28be5aa64dd9c2e9160bd96d060915b7e2446118ef3b7ffe5a64736f6c63430008170033","linkReferences":{}},"methodIdentifiers":{"allowance(address,address)":"dd62ed3e","approve(address,uint256)":"095ea7b3","balanceOf(address)":"70a08231","changeManager(address)":"a3fbbaae","claimReward()":"b88a802f","decimals()":"313ce567","decreaseAllowance(address,uint256)":"a457c2d7","earned(address)":"008cc262","exitFarm()":"cddaf358","farmDeposit(uint256)":"90717dd3","farmWithdraw(uint256)":"2b8c8a64","increaseAllowance(address,uint256)":"39509351","lastTimeRewardApplicable()":"80faa57d","lastUpdateTime()":"c8f33c91","managerAddress()":"cf73a1bc","name()":"06fdde03","ownerAddress()":"8f84aa09","perTokenPaid(address)":"a4c0ae6f","perTokenStored()":"ee6c0d57","periodFinished()":"0962c4f9","recoverToken(address,uint256)":"b29a8140","rewardDuration()":"f520e7e5","rewardPerToken()":"cd3daf9d","rewardRate()":"7b0a47ee","rewardToken()":"f7c618c1","setRewardDuration(uint256)":"c0ed00c9","setRewardRate(uint256)":"9e447fc6","stakeCount(address)":"33060d90","stakeToken()":"51ed6a30","stakes(address,uint256)":"584b62a1","symbol()":"95d89b41","timeLock()":"d085835a","totalSupply()":"18160ddd","transfer(address,uint256)":"a9059cbb","transferFrom(address,address,uint256)":"23b872dd","unlockable(address)":"979129c5","userRewards(address)":"0660f1e8"},"id":10}