{"abi":[{"type":"constructor","inputs":[{"name":"_stakeToken","type":"address","internalType":"contract IERC20"},{"name":"_rewardTokenA","type":"address","internalType":"contract IERC20"},{"name":"_rewardTokenB","type":"address","internalType":"contract IERC20"},{"name":"_defaultDuration","type":"uint256","internalType":"uint256"}],"stateMutability":"nonpayable"},{"type":"function","name":"allowance","inputs":[{"name":"_owner","type":"address","internalType":"address"},{"name":"_spender","type":"address","internalType":"address"}],"outputs":[{"name":"","type":"uint256","internalType":"uint256"}],"stateMutability":"view"},{"type":"function","name":"approve","inputs":[{"name":"_spender","type":"address","internalType":"address"},{"name":"_amount","type":"uint256","internalType":"uint256"}],"outputs":[{"name":"","type":"bool","internalType":"bool"}],"stateMutability":"nonpayable"},{"type":"function","name":"balanceOf","inputs":[{"name":"_walletAddress","type":"address","internalType":"address"}],"outputs":[{"name":"","type":"uint256","internalType":"uint256"}],"stateMutability":"view"},{"type":"function","name":"changeManager","inputs":[{"name":"_newManager","type":"address","internalType":"address"}],"outputs":[],"stateMutability":"nonpayable"},{"type":"function","name":"claimOwnership","inputs":[],"outputs":[],"stateMutability":"nonpayable"},{"type":"function","name":"claimReward","inputs":[],"outputs":[{"name":"rewardAmountA","type":"uint256","internalType":"uint256"},{"name":"rewardAmountB","type":"uint256","internalType":"uint256"}],"stateMutability":"nonpayable"},{"type":"function","name":"decimals","inputs":[],"outputs":[{"name":"","type":"uint8","internalType":"uint8"}],"stateMutability":"view"},{"type":"function","name":"decreaseAllowance","inputs":[{"name":"_spender","type":"address","internalType":"address"},{"name":"_subtractedValue","type":"uint256","internalType":"uint256"}],"outputs":[{"name":"","type":"bool","internalType":"bool"}],"stateMutability":"nonpayable"},{"type":"function","name":"earnedA","inputs":[{"name":"_walletAddress","type":"address","internalType":"address"}],"outputs":[{"name":"","type":"uint256","internalType":"uint256"}],"stateMutability":"view"},{"type":"function","name":"earnedB","inputs":[{"name":"_walletAddress","type":"address","internalType":"address"}],"outputs":[{"name":"","type":"uint256","internalType":"uint256"}],"stateMutability":"view"},{"type":"function","name":"exitFarm","inputs":[],"outputs":[],"stateMutability":"nonpayable"},{"type":"function","name":"farmDeposit","inputs":[{"name":"_stakeAmount","type":"uint256","internalType":"uint256"}],"outputs":[],"stateMutability":"nonpayable"},{"type":"function","name":"farmWithdraw","inputs":[{"name":"_withdrawAmount","type":"uint256","internalType":"uint256"}],"outputs":[],"stateMutability":"nonpayable"},{"type":"function","name":"increaseAllowance","inputs":[{"name":"_spender","type":"address","internalType":"address"},{"name":"_addedValue","type":"uint256","internalType":"uint256"}],"outputs":[{"name":"","type":"bool","internalType":"bool"}],"stateMutability":"nonpayable"},{"type":"function","name":"lastTimeRewardApplicable","inputs":[],"outputs":[{"name":"res","type":"uint256","internalType":"uint256"}],"stateMutability":"view"},{"type":"function","name":"lastUpdateTime","inputs":[],"outputs":[{"name":"","type":"uint256","internalType":"uint256"}],"stateMutability":"view"},{"type":"function","name":"managerAddress","inputs":[],"outputs":[{"name":"","type":"address","internalType":"address"}],"stateMutability":"view"},{"type":"function","name":"name","inputs":[],"outputs":[{"name":"","type":"string","internalType":"string"}],"stateMutability":"view"},{"type":"function","name":"ownerAddress","inputs":[],"outputs":[{"name":"","type":"address","internalType":"address"}],"stateMutability":"view"},{"type":"function","name":"perTokenPaidA","inputs":[{"name":"","type":"address","internalType":"address"}],"outputs":[{"name":"","type":"uint256","internalType":"uint256"}],"stateMutability":"view"},{"type":"function","name":"perTokenPaidB","inputs":[{"name":"","type":"address","internalType":"address"}],"outputs":[{"name":"","type":"uint256","internalType":"uint256"}],"stateMutability":"view"},{"type":"function","name":"perTokenStoredA","inputs":[],"outputs":[{"name":"","type":"uint256","internalType":"uint256"}],"stateMutability":"view"},{"type":"function","name":"perTokenStoredB","inputs":[],"outputs":[{"name":"","type":"uint256","internalType":"uint256"}],"stateMutability":"view"},{"type":"function","name":"periodFinished","inputs":[],"outputs":[{"name":"","type":"uint256","internalType":"uint256"}],"stateMutability":"view"},{"type":"function","name":"proposeNewOwner","inputs":[{"name":"_newOwner","type":"address","internalType":"address"}],"outputs":[],"stateMutability":"nonpayable"},{"type":"function","name":"proposedOwner","inputs":[],"outputs":[{"name":"","type":"address","internalType":"address"}],"stateMutability":"view"},{"type":"function","name":"recoverToken","inputs":[{"name":"tokenAddress","type":"address","internalType":"contract IERC20"},{"name":"tokenAmount","type":"uint256","internalType":"uint256"}],"outputs":[],"stateMutability":"nonpayable"},{"type":"function","name":"rewardDuration","inputs":[],"outputs":[{"name":"","type":"uint256","internalType":"uint256"}],"stateMutability":"view"},{"type":"function","name":"rewardPerTokenA","inputs":[],"outputs":[{"name":"","type":"uint256","internalType":"uint256"}],"stateMutability":"view"},{"type":"function","name":"rewardPerTokenB","inputs":[],"outputs":[{"name":"","type":"uint256","internalType":"uint256"}],"stateMutability":"view"},{"type":"function","name":"rewardRateA","inputs":[],"outputs":[{"name":"","type":"uint256","internalType":"uint256"}],"stateMutability":"view"},{"type":"function","name":"rewardRateB","inputs":[],"outputs":[{"name":"","type":"uint256","internalType":"uint256"}],"stateMutability":"view"},{"type":"function","name":"rewardTokenA","inputs":[],"outputs":[{"name":"","type":"address","internalType":"contract IERC20"}],"stateMutability":"view"},{"type":"function","name":"rewardTokenB","inputs":[],"outputs":[{"name":"","type":"address","internalType":"contract IERC20"}],"stateMutability":"view"},{"type":"function","name":"setRewardDuration","inputs":[{"name":"_rewardDuration","type":"uint256","internalType":"uint256"}],"outputs":[],"stateMutability":"nonpayable"},{"type":"function","name":"setRewardRate","inputs":[{"name":"_newRewardRateA","type":"uint256","internalType":"uint256"},{"name":"_newRewardRateB","type":"uint256","internalType":"uint256"}],"outputs":[],"stateMutability":"nonpayable"},{"type":"function","name":"stakeToken","inputs":[],"outputs":[{"name":"","type":"address","internalType":"contract IERC20"}],"stateMutability":"view"},{"type":"function","name":"symbol","inputs":[],"outputs":[{"name":"","type":"string","internalType":"string"}],"stateMutability":"view"},{"type":"function","name":"totalSupply","inputs":[],"outputs":[{"name":"","type":"uint256","internalType":"uint256"}],"stateMutability":"view"},{"type":"function","name":"transfer","inputs":[{"name":"_recipient","type":"address","internalType":"address"},{"name":"_amount","type":"uint256","internalType":"uint256"}],"outputs":[{"name":"","type":"bool","internalType":"bool"}],"stateMutability":"nonpayable"},{"type":"function","name":"transferFrom","inputs":[{"name":"_sender","type":"address","internalType":"address"},{"name":"_recipient","type":"address","internalType":"address"},{"name":"_amount","type":"uint256","internalType":"uint256"}],"outputs":[{"name":"","type":"bool","internalType":"bool"}],"stateMutability":"nonpayable"},{"type":"function","name":"userRewardsA","inputs":[{"name":"","type":"address","internalType":"address"}],"outputs":[{"name":"","type":"uint256","internalType":"uint256"}],"stateMutability":"view"},{"type":"function","name":"userRewardsB","inputs":[{"name":"","type":"address","internalType":"address"}],"outputs":[{"name":"","type":"uint256","internalType":"uint256"}],"stateMutability":"view"},{"type":"event","name":"Approval","inputs":[{"name":"owner","type":"address","indexed":true,"internalType":"address"},{"name":"spender","type":"address","indexed":true,"internalType":"address"},{"name":"value","type":"uint256","indexed":false,"internalType":"uint256"}],"anonymous":false},{"type":"event","name":"ManagerChanged","inputs":[{"name":"newManager","type":"address","indexed":false,"internalType":"address"}],"anonymous":false},{"type":"event","name":"OwnerChanged","inputs":[{"name":"newOwner","type":"address","indexed":false,"internalType":"address"}],"anonymous":false},{"type":"event","name":"OwnerProposed","inputs":[{"name":"proposedOwner","type":"address","indexed":false,"internalType":"address"}],"anonymous":false},{"type":"event","name":"Recovered","inputs":[{"name":"token","type":"address","indexed":true,"internalType":"contract IERC20"},{"name":"tokenAmount","type":"uint256","indexed":false,"internalType":"uint256"}],"anonymous":false},{"type":"event","name":"RewardAdded","inputs":[{"name":"rewardRateA","type":"uint256","indexed":false,"internalType":"uint256"},{"name":"rewardRateB","type":"uint256","indexed":false,"internalType":"uint256"},{"name":"tokenAmountA","type":"uint256","indexed":false,"internalType":"uint256"},{"name":"tokenAmountB","type":"uint256","indexed":false,"internalType":"uint256"}],"anonymous":false},{"type":"event","name":"RewardPaid","inputs":[{"name":"user","type":"address","indexed":true,"internalType":"address"},{"name":"tokenAmountA","type":"uint256","indexed":false,"internalType":"uint256"},{"name":"tokenAmountB","type":"uint256","indexed":false,"internalType":"uint256"}],"anonymous":false},{"type":"event","name":"RewardsDurationUpdated","inputs":[{"name":"newRewardDuration","type":"uint256","indexed":false,"internalType":"uint256"}],"anonymous":false},{"type":"event","name":"Staked","inputs":[{"name":"user","type":"address","indexed":true,"internalType":"address"},{"name":"tokenAmount","type":"uint256","indexed":false,"internalType":"uint256"}],"anonymous":false},{"type":"event","name":"Transfer","inputs":[{"name":"from","type":"address","indexed":true,"internalType":"address"},{"name":"to","type":"address","indexed":true,"internalType":"address"},{"name":"value","type":"uint256","indexed":false,"internalType":"uint256"}],"anonymous":false},{"type":"event","name":"Withdrawn","inputs":[{"name":"user","type":"address","indexed":true,"internalType":"address"},{"name":"tokenAmount","type":"uint256","indexed":false,"internalType":"uint256"}],"anonymous":false}],"bytecode":{"object":"0x60e060405234801562000010575f80fd5b5060405162002007380380620020078339810160408190526200003391620000e8565b5f8111620000875760405162461bcd60e51b815260206004820152601e60248201527f53696d706c654661726d32583a20494e56414c49445f4455524154494f4e0000604482015260640160405180910390fd5b6001600160a01b0393841660805291831660a05290911660c052600f8054336001600160a01b0319918216811790925560118054909116909117905560075562000137565b80516001600160a01b0381168114620000e3575f80fd5b919050565b5f805f8060808587031215620000fc575f80fd5b6200010785620000cc565b93506200011760208601620000cc565b92506200012760408601620000cc565b6060959095015193969295505050565b60805160a05160c051611e58620001af5f395f818161048301528181610b6f01528181610c12015281816112b801526114a001525f818161036301528181610b3701528181610bd901528181611267015261146f01525f81816103140152818161088701528181610eee01526112160152611e585ff3fe608060405234801561000f575f80fd5b50600436106101f7575f3560e01c806306fdde03146101fb578063095ea7b3146102395780630962c4f91461025c57806318160ddd146102735780631820d7391461027a57806323b872dd1461028d578063255cfca3146102a05780632b8c8a64146102a9578063313ce567146102be57806333754b6e146102d85780633462e0a8146102e157806339509351146102f45780634e71e0c81461030757806351ed6a301461030f57806360fb36261461034357806368213329146103565780636b8ba92c1461035e57806370a082311461038557806380faa57d146103ad5780638c9d4f77146103b55780638d519a49146103d45780638f84aa09146103f357806390717dd31461040657806395d89b4114610419578063a3fbbaae1461043d578063a457c2d714610450578063a85594ad14610463578063a9059cbb1461046b578063aa7b83e31461047e578063b1f8100d146104a5578063b29a8140146104b8578063b88a802f146104cb578063c0ed00c9146104e8578063c429f094146104fb578063c8f33c9114610504578063cddaf3581461050d578063cf73a1bc14610515578063d153b60c14610528578063d73489481461053b578063dd62ed3e1461055a578063efa1c63c14610592578063f520e7e51461059b578063fa57cbe3146105a4575b5f80fd5b6102236040518060400160405280600981526020016856657273654661726d60b81b81525081565b6040516102309190611b34565b60405180910390f35b61024c610247366004611b7d565b6105c3565b6040519015158152602001610230565b61026560065481565b604051908152602001610230565b5f54610265565b610265610288366004611ba7565b6105d9565b61024c61029b366004611bc2565b61065d565b61026560045481565b6102bc6102b7366004611c00565b6107a9565b005b6102c6601281565b60405160ff9091168152602001610230565b61026560095481565b6102bc6102ef366004611c17565b6108f4565b61024c610302366004611b7d565b610c91565b6102bc610ccc565b6103367f000000000000000000000000000000000000000000000000000000000000000081565b6040516102309190611c37565b610265610351366004611ba7565b610d7f565b610265610de8565b6103367f000000000000000000000000000000000000000000000000000000000000000081565b610265610393366004611ba7565b6001600160a01b03165f9081526002602052604090205490565b610265610e55565b6102656103c3366004611ba7565b600c6020525f908152604090205481565b6102656103e2366004611ba7565b600b6020525f908152604090205481565b600f54610336906001600160a01b031681565b6102bc610414366004611c00565b610e6b565b61022360405180604001604052806005815260200164564641524d60d81b81525081565b6102bc61044b366004611ba7565b610f50565b61024c61045e366004611b7d565b610ff6565b61026561102c565b61024c610479366004611b7d565b611092565b6103367f000000000000000000000000000000000000000000000000000000000000000081565b6102bc6104b3366004611ba7565b611179565b6102bc6104c6366004611b7d565b611214565b6104d361135a565b60408051928352602083019190915201610230565b6102bc6104f6366004611c00565b61150f565b610265600a5481565b61026560085481565b6102bc611619565b601154610336906001600160a01b031681565b601054610336906001600160a01b031681565b610265610549366004611ba7565b600e6020525f908152604090205481565b610265610568366004611c4b565b6001600160a01b039182165f90815260036020908152604080832093909416825291909152205490565b61026560055481565b61026560075481565b6102656105b2366004611ba7565b600d6020525f908152604090205481565b5f6105cf33848461163e565b5060015b92915050565b6001600160a01b0381165f908152600d602052604081205481906105fb61102c565b6106059190611c96565b6001600160a01b0384165f908152600b602090815260408083205460029092529091205491925090670de0b6b3a764000090610642908490611ca9565b61064c9190611cc0565b6106569190611cdf565b9392505050565b5f61066661102c565b600955610671610de8565b600a5561067c610e55565b60085583610689816105d9565b6001600160a01b0382165f908152600b60205260409020556106aa81610d7f565b6001600160a01b0382165f908152600c6020908152604080832093909355600954600d825283832055600a54600e90915291902055836106e9816105d9565b6001600160a01b0382165f908152600b602052604090205561070a81610d7f565b6001600160a01b038083165f908152600c6020908152604080832094909455600954600d825284832055600a54600e82528483205591891681526003825282812033825290915220545f1914610792576001600160a01b0386165f9081526003602090815260408083203384529091528120805486929061078c908490611c96565b90915550505b61079d86868661169f565b50600195945050505050565b6107b161102c565b6009556107bc610de8565b600a556107c7610e55565b6008556107d3336105d9565b335f818152600b60205260409020919091556107ee90610d7f565b335f908152600c6020908152604080832093909355600954600d825283832055600a54600e9091529190205560065442101561087757805f54116108775760405162461bcd60e51b815260206004820152601b60248201527a53696d706c654661726d32583a205354494c4c5f4541524e494e4760281b60448201526064015b60405180910390fd5b33610882828261170d565b6108ad7f00000000000000000000000000000000000000000000000000000000000000008284611791565b806001600160a01b03167f7084f5476618d8e60b11ef0d7d3f06914655adb8793e28ff7f018d4c76d505d5836040516108e891815260200190565b60405180910390a25050565b6011546001600160a01b0316331461091e5760405162461bcd60e51b815260040161086e90611cf2565b61092661102c565b600955610931610de8565b600a5561093c610e55565b6008555f546109885760405162461bcd60e51b815260206004820152601860248201527753696d706c654661726d32583a204e4f5f5354414b45525360401b604482015260640161086e565b5f82116109d65760405162461bcd60e51b815260206004820152601c60248201527b53696d706c654661726d32583a20494e56414c49445f524154455f4160201b604482015260640161086e565b5f8111610a245760405162461bcd60e51b815260206004820152601c60248201527b29b4b6b83632a330b936992c1d1024a72b20a624a22fa920aa22afa160211b604482015260640161086e565b600654426008819055600754610a3991611cdf565b60065542811115610ba257600454831015610aa15760405162461bcd60e51b815260206004820152602260248201527f53696d706c654661726d32583a20524154455f415f43414e545f444543524541604482015261534560f01b606482015260840161086e565b600554821015610afe5760405162461bcd60e51b815260206004820152602260248201527f53696d706c654661726d32583a20524154455f425f43414e545f444543524541604482015261534560f01b606482015260840161086e565b5f610b094283611c96565b90505f60045482610b1a9190611ca9565b90505f60055483610b2b9190611ca9565b601154909150610b66907f0000000000000000000000000000000000000000000000000000000000000000906001600160a01b031684611791565b601154610b9e907f0000000000000000000000000000000000000000000000000000000000000000906001600160a01b031683611791565b5050505b600483905560058290556007545f90610bbc908590611ca9565b90505f83600754610bcd9190611ca9565b601154909150610c09907f0000000000000000000000000000000000000000000000000000000000000000906001600160a01b031630856117f4565b601154610c42907f0000000000000000000000000000000000000000000000000000000000000000906001600160a01b031630846117f4565b6040805186815260208101869052908101839052606081018290527f3ffbf598271669161ecd81ce333d0a0b574924ce7a91e396841eb2225e59e26e9060800160405180910390a15050505050565b335f8181526003602090815260408083206001600160a01b038716845290915281205490916105cf918590610cc7908690611cdf565b61163e565b6010546001600160a01b03163314610d265760405162461bcd60e51b815260206004820152601f60248201527f53696d706c654661726d32583a20494e56414c49445f43414e44494441544500604482015260640161086e565b601054600f80546001600160a01b0319166001600160a01b0390921691821790556040517fa2ea9883a321a3e97b8266c2b078bfeec6d50c711ed71f874a90d500ae2eaf3691610d7591611c37565b60405180910390a1565b6001600160a01b0381165f908152600e60205260408120548190610da1610de8565b610dab9190611c96565b6001600160a01b0384165f908152600c602090815260408083205460029092529091205491925090670de0b6b3a764000090610642908490611ca9565b5f80545f03610df85750600a5490565b5f600854610e04610e55565b610e0e9190611c96565b90505f8054670de0b6b3a764000060055484610e2a9190611ca9565b610e349190611ca9565b610e3e9190611cc0565b905080600a54610e4e9190611cdf565b9250505090565b5f6006544210610e66575060065490565b504290565b610e7361102c565b600955610e7e610de8565b600a55610e89610e55565b600855610e95336105d9565b335f818152600b6020526040902091909155610eb090610d7f565b335f818152600c6020908152604080832094909455600954600d825284832055600a54600e90915292902091909155610ee98282611832565b610f157f00000000000000000000000000000000000000000000000000000000000000008230856117f4565b806001600160a01b03167f9e71bc8eea02a63969f509818f2dafb9254532904319f9dbda79b67bd34a5f3d836040516108e891815260200190565b600f546001600160a01b03163314610f7a5760405162461bcd60e51b815260040161086e90611d29565b6001600160a01b038116610fa05760405162461bcd60e51b815260040161086e90611d5e565b601180546001600160a01b0319166001600160a01b0383161790556040517f198db6e425fb8aafd1823c6ca50be2d51e5764571a5ae0f0f21c6812e45def0b90610feb908390611c37565b60405180910390a150565b335f8181526003602090815260408083206001600160a01b038716845290915281205490916105cf918590610cc7908690611c96565b5f80545f0361103c575060095490565b5f600854611048610e55565b6110529190611c96565b90505f8054670de0b6b3a76400006004548461106e9190611ca9565b6110789190611ca9565b6110829190611cc0565b905080600954610e4e9190611cdf565b5f61109b61102c565b6009556110a6610de8565b600a556110b1610e55565b6008556110bd336105d9565b335f818152600b60205260409020919091556110d890610d7f565b335f908152600c6020908152604080832093909355600954600d825283832055600a54600e909152919020558261110e816105d9565b6001600160a01b0382165f908152600b602052604090205561112f81610d7f565b6001600160a01b0382165f908152600c6020908152604080832093909355600954600d825283832055600a54600e9091529190205561116f33858561169f565b5060019392505050565b600f546001600160a01b031633146111a35760405162461bcd60e51b815260040161086e90611d29565b6001600160a01b0381166111c95760405162461bcd60e51b815260040161086e90611d5e565b601080546001600160a01b0319166001600160a01b0383161790556040517f35b5da26a401fdbef2e1cfabeec2c10a6121d56f136be501a393c284cdd1af5890610feb908390611c37565b7f00000000000000000000000000000000000000000000000000000000000000006001600160a01b0316826001600160a01b0316036112655760405162461bcd60e51b815260040161086e90611d93565b7f00000000000000000000000000000000000000000000000000000000000000006001600160a01b0316826001600160a01b0316036112b65760405162461bcd60e51b815260040161086e90611d93565b7f00000000000000000000000000000000000000000000000000000000000000006001600160a01b0316826001600160a01b0316036113075760405162461bcd60e51b815260040161086e90611d93565b600f5461131f9083906001600160a01b031683611791565b816001600160a01b03167f8c1256b8896378cd5044f80c202f9772b9d77dc85c8a6eb51967210b09bfaa28826040516108e891815260200190565b5f8061136461102c565b60095561136f610de8565b600a5561137a610e55565b600855611386336105d9565b335f818152600b60205260409020919091556113a190610d7f565b335f818152600c6020908152604080832094909455600954600d825284832055600a54600e909152929020919091556113d9816105d9565b92506113e481610d7f565b91505f8311806113f357505f82115b61143f5760405162461bcd60e51b815260206004820152601e60248201527f53696d706c654661726d32583a204e4f5448494e475f544f5f434c41494d0000604482015260640161086e565b6001600160a01b0381165f908152600b60209081526040808320839055600c9091528120558215611495576114957f00000000000000000000000000000000000000000000000000000000000000008285611791565b81156114c6576114c67f00000000000000000000000000000000000000000000000000000000000000008284611791565b60408051848152602081018490526001600160a01b038316917fd6f2c8500df5b44f11e9e48b91ff9f1b9d81bc496d55570c2b1b75bf65243f51910160405180910390a2509091565b6011546001600160a01b031633146115395760405162461bcd60e51b815260040161086e90611cf2565b5f81116115885760405162461bcd60e51b815260206004820152601e60248201527f53696d706c654661726d32583a20494e56414c49445f4455524154494f4e0000604482015260640161086e565b60065442116115e45760405162461bcd60e51b815260206004820152602260248201527f53696d706c654661726d32583a204f4e474f494e475f4449535452494255544960448201526127a760f11b606482015260840161086e565b60078190556040518181527ffb46ca5a5e06d4540d6387b930a7c978bce0db5f449ec6b3f5d07c6e1d44f2d390602001610feb565b335f90815260026020526040902054611631816107a9565b61163961135a565b505050565b6001600160a01b038381165f8181526003602090815260408083209487168084529482529182902085905590518481527f8c5be1e5ebec7d5bd14f71427d1e84f3dd0314c0f7b2291e5b200ac8c7c3b92591015b60405180910390a3505050565b6001600160a01b0383165f908152600260205260409020546116c2908290611c96565b6001600160a01b038481165f8181526002602090815260408083209590955592861680825290849020805486019055925184815290915f80516020611e038339815191529101611692565b5f8054839003905561171e82611893565b600180549190910390556001600160a01b0381165f9081526002602052604090205461174b908390611c96565b6001600160a01b0382165f818152600260205260408082209390935591515f80516020611e03833981519152906117859086815260200190565b60405180910390a35050565b6040516001600160a01b03831660248201526044810182905261163990849063a9059cbb60e01b906064015b60408051601f198184030181529190526020810180516001600160e01b03166001600160e01b031990931692909217909152611a0a565b6040516001600160a01b038085166024830152831660448201526064810182905261182c9085906323b872dd60e01b906084016117bd565b50505050565b815f5461183f9190611cdf565b5f5561184a82611893565b6001546118579190611cdf565b6001556001600160a01b0381165f818152600260209081526040808320805487019055518581525f80516020611e038339815191529101611785565b5f815f036118a257505f919050565b816001600160801b82106118bb5760809190911c9060401b5b600160401b82106118d15760409190911c9060201b5b600160201b82106118e75760209190911c9060101b5b6201000082106118fc5760109190911c9060081b5b61010082106119105760089190911c9060041b5b601082106119235760049190911c9060021b5b6008821061192f5760011b5b600161193b8286611cc0565b6119459083611cdf565b901c905060016119558286611cc0565b61195f9083611cdf565b901c9050600161196f8286611cc0565b6119799083611cdf565b901c905060016119898286611cc0565b6119939083611cdf565b901c905060016119a38286611cc0565b6119ad9083611cdf565b901c905060016119bd8286611cc0565b6119c79083611cdf565b901c905060016119d78286611cc0565b6119e19083611cdf565b901c90505f6119f08286611cc0565b90508082106119ff5780611a01565b815b95945050505050565b5f80836001600160a01b031683604051611a249190611dc8565b5f604051808303815f865af19150503d805f8114611a5d576040519150601f19603f3d011682016040523d82523d5f602084013e611a62565b606091505b509150915081611aad5760405162461bcd60e51b815260206004820152601660248201527514d85999515490cc8c0e8810d0531317d1905253115160521b604482015260640161086e565b80511561182c5780806020019051810190611ac89190611de3565b61182c5760405162461bcd60e51b815260206004820152601b60248201527a14d85999515490cc8c0e8813d4115490551253d397d19052531151602a1b604482015260640161086e565b5f5b83811015611b2c578181015183820152602001611b14565b50505f910152565b602081525f8251806020840152611b52816040850160208701611b12565b601f01601f19169190910160400192915050565b6001600160a01b0381168114611b7a575f80fd5b50565b5f8060408385031215611b8e575f80fd5b8235611b9981611b66565b946020939093013593505050565b5f60208284031215611bb7575f80fd5b813561065681611b66565b5f805f60608486031215611bd4575f80fd5b8335611bdf81611b66565b92506020840135611bef81611b66565b929592945050506040919091013590565b5f60208284031215611c10575f80fd5b5035919050565b5f8060408385031215611c28575f80fd5b50508035926020909101359150565b6001600160a01b0391909116815260200190565b5f8060408385031215611c5c575f80fd5b8235611c6781611b66565b91506020830135611c7781611b66565b809150509250929050565b634e487b7160e01b5f52601160045260245ffd5b818103818111156105d3576105d3611c82565b80820281158282048414176105d3576105d3611c82565b5f82611cda57634e487b7160e01b5f52601260045260245ffd5b500490565b808201808211156105d3576105d3611c82565b6020808252601d908201527f53696d706c654661726d32583a20494e56414c49445f4d414e41474552000000604082015260600190565b6020808252601b908201527a29b4b6b83632a330b936992c1d1024a72b20a624a22fa7aba722a960291b604082015260600190565b6020808252601b908201527a53696d706c654661726d32583a2057524f4e475f4144445245535360281b604082015260600190565b6020808252601b908201527a29b4b6b83632a330b936992c1d1024a72b20a624a22faa27a5a2a760291b604082015260600190565b5f8251611dd9818460208701611b12565b9190910192915050565b5f60208284031215611df3575f80fd5b81518015158114610656575f80fdfeddf252ad1be2c89b69c2b068fc378daa952ba7f163c4a11628f55a4df523b3efa264697066735822122044aca2659e147adfff008b3be23c3f9427e082e992136343a7cf99c35061d37464736f6c63430008170033","linkReferences":{}},"methodIdentifiers":{"allowance(address,address)":"dd62ed3e","approve(address,uint256)":"095ea7b3","balanceOf(address)":"70a08231","changeManager(address)":"a3fbbaae","claimOwnership()":"4e71e0c8","claimReward()":"b88a802f","decimals()":"313ce567","decreaseAllowance(address,uint256)":"a457c2d7","earnedA(address)":"1820d739","earnedB(address)":"60fb3626","exitFarm()":"cddaf358","farmDeposit(uint256)":"90717dd3","farmWithdraw(uint256)":"2b8c8a64","increaseAllowance(address,uint256)":"39509351","lastTimeRewardApplicable()":"80faa57d","lastUpdateTime()":"c8f33c91","managerAddress()":"cf73a1bc","name()":"06fdde03","ownerAddress()":"8f84aa09","perTokenPaidA(address)":"fa57cbe3","perTokenPaidB(address)":"d7348948","perTokenStoredA()":"33754b6e","perTokenStoredB()":"c429f094","periodFinished()":"0962c4f9","proposeNewOwner(address)":"b1f8100d","proposedOwner()":"d153b60c","recoverToken(address,uint256)":"b29a8140","rewardDuration()":"f520e7e5","rewardPerTokenA()":"a85594ad","rewardPerTokenB()":"68213329","rewardRateA()":"255cfca3","rewardRateB()":"efa1c63c","rewardTokenA()":"6b8ba92c","rewardTokenB()":"aa7b83e3","setRewardDuration(uint256)":"c0ed00c9","setRewardRate(uint256,uint256)":"3462e0a8","stakeToken()":"51ed6a30","symbol()":"95d89b41","totalSupply()":"18160ddd","transfer(address,uint256)":"a9059cbb","transferFrom(address,address,uint256)":"23b872dd","userRewardsA(address)":"8d519a49","userRewardsB(address)":"8c9d4f77"},"id":6}